:100000000C944B010C9473010C9473010C947301C8
:100010000C9473010C9473010C9473010C94730190
:100020000C9473010C9473010C94E9030C94580420
:100030000C9473010C9473010C9473010C94730170
:100040000C9473010C9473010C9473010C94730160
:100050000C9473010C9473010C9473010C948A0634
:100060000C9473010C9473010C9473010C94730140
:100070000C9473010C9473010C9473010C94730130
:100080000C94D4060C9473010C9473010C947301BA
:100090000C9473010C9473010C9473010C94730110
:1000A0000C9473010C9473010C947301D5F08D14AE
:1000B000A1C881CFD9F1AF2000F0F89C8E8783874B
:1000C0008E9CF8F00000FEFF0303030303070EFC01
:1000D000F80000FEFF0303030303070EFCF8000013
:1000E000FFFF00000000000000FFFF0000FEFF8394
:1000F00083838383C7EE7C380000F8FC0E0703037C
:1001000003070EFCF800003F7FE0C08080C0E07F66
:100110003FFFFF01010101010101FFFF0000FFFF9F
:100120000C0C0C0C1C3E77E3C100007FFFC0C0C06C
:10013000C0C0E0703F1F00001F3F70E0C0C0C0E0C3
:10014000703F1F00007FFFC1C1C1C1C1E3773E1CEA
:1001500000001F3F70E0C0C0C0E0703F1F00000003
:10016000000001FFFF010000001E2C000000000045
:1001700000000080C0E0F0F8FCFEFFFEFCF8F0E0BC
:10018000C080000000000000008040E0F0F8FCFEAD
:10019000FFFFFFFFFFFFFFFFFFFFFFFFFFFFFFFF6F
:1001A000FFFEFCF8F0E0C0070F9EFDFBF70FDFBF7E
:1001B0007FFFFFFFFFFFFFFFFFFFFFFFFFFFFFFFCF
:1001C0001F0F071F0F1E3F7FF3E1C000FFFF0F1E31
:1001D0003D7BF70FFFFF1F0F071F0FFFC3E180C01D
:1001E000E07E3F000000000103000F1F3C78F0E0BC
:1001F000C000C3E180C0E07E3F1F0F070301000085
:1002000000000000000000000000000000010300EA
:100210000F070301000000000000000000000008BC
:100220000B000202020000090400000102020000AB
:1002300005240010010524010101042402060524FF
:100240000600010705810310004009040100020AAD
:10025000000000070502024000000705830240007D
:10026000000403090412010002EF02014041233699
:100270008000010102030141726475696E6F204CB8
:100280004C430041726475696E6F204C656F6E61FE
:1002900072646F00090811241FBECFEFDAE0DEBFE1
:1002A000CDBF11E0A0E0B1E0EAE9F6E102C00590BF
:1002B0000D92A632B107D9F725E0A6E2B1E001C060
:1002C0001D92A63BB207E1F711E0CBE4D1E004C0F8
:1002D0002197FE010E94450BCA34D107C9F70E943D
:1002E0002E080C944B0B0C9400008091370108955C
:1002F000E6E5F1E0A0E0B8E000800EBC8111012C41
:100300001197A0FDFDCF0192B9F70DB40895FC013E
:1003100080915501882311F13FB7F89482E08093D2
:10032000E9002091F200822F90E01816190614F4CB
:1003300081E090E0882339F0289844E64093540106
:100340004091F1004083222339F02091F2002111E5
:1003500003C02BE62093E8003FBF08958FEF9FEF87
:1003600008952FB7F89483E08093E9009091E80016
:10037000892F807295FF04C09091F20080E4891B60
:100380002FBF089580914C0181110DC082E08093B0
:10039000480184E08093490110924B0110924A0178
:1003A00081E080934C0188E491E00895CF93DF933E
:1003B0001F92CDB7DEB76983DC01ED91FC9102801D
:1003C000F381E02D41E050E0BE016F5F7F4F099562
:1003D0000F90DF91CF91089583E08093E9008091A1
:1003E000F200882319F08AE38093E80008950E94C0
:1003F000B10190E00895CF93DF931F92CDB7DEB7A0
:10040000FC018485958597FD08C02FEF3FEF358768
:1004100024870F90DF91CF910895CE0101960E941D
:100420008701019719F4898190E0F3CF8FEF9FEF57
:10043000F0CF0F931F93CF93DF931F92CDB7DEB70B
:100440008C01FC018485958597FF0BC0CE01019638
:100450000E948701019771F4898190E0F8019587E6
:100460008487F801848595850F90DF91CF911F9146
:100470000F9108958FEF9FEFF1CFFC018485958553
:1004800097FD0BC09FB7F89482E08093E9008091BC
:10049000F2009FBF90E0019608959FB7F89482E024
:1004A0008093E9008091F2009FBF90E00895409111
:1004B0004201509143012091400130914101421786
:1004C0005307B4F49091E8009570E1F39091E8003F
:1004D00092FD19C08093F1008091420190914301F7
:1004E00001968F739927892B19F48EEF8093E8007A
:1004F0008091420190914301019690934301809332
:10050000420181E0089580E00895DF92EF92FF922A
:100510000F931F93CF93DF93D82E8A01EB017B01BA
:10052000E40EF51ECE15DF0559F0D7FE12C0FE0110
:1005300084910E94570221968111F4CF0FEF1FEF93
:10054000C801DF91CF911F910F91FF90EF90DF9045
:1005500008958881EECF0F931F93CF93DF931F925F
:10056000CDB7DEB782E0898342E450E06FE172E00C
:1005700080E80E9485020E94C201DC0112960D9162
:100580001C910115110589F0D801ED91FC910280B3
:10059000F381E02DBE016F5F7F4FC801099597FD84
:1005A00004C0F80100851185ECCF89810F90DF919F
:1005B000CF911F910F910895615030F02091F1007B
:1005C000FC0120830196F8CF289884E6809354019B
:1005D00008953FB7F8948091330190913401A09130
:1005E0003501B091360126B5A89B05C02F3F19F003
:1005F0000196A11DB11D3FBFBA2FA92F982F8827A3
:10060000BC01CD01620F711D811D911D42E0660F7D
:10061000771F881F991F4A95D1F708958F929F924F
:10062000AF92BF92CF92DF92EF92FF926B017C016B
:100630000E94E9024B015C01C114D104E104F10400
:10064000B9F00E94E902681979098A099B09683E94
:1006500073408105910580F321E0C21AD108E108B9
:10066000F10888EE880E83E0981EA11CB11CE4CF2F
:10067000FF90EF90DF90CF90BF90AF909F908F90C2
:1006800008958F929F92AF92BF92CF92DF92EF9296
:10069000FF920F931F93CF93DF936C017B018A012D
:1006A00080910C01882309F45CC080915501882356
:1006B00009F457C08091470180FF05C08091E00098
:1006C00082608093E000E801B12C8AEFA82E93E0CD
:1006D000892E2AE3922E209711F4BB20D9F10E9493
:1006E000B10181110AC0AA94AA20D9F161E070E099
:1006F00080E090E00E940E03EECF8C171D0611F0F3
:100700000CF08C2F9FB7F8948092E9002091E800BC
:1007100025FD02C09FBFDFCF282F30E0C21BD30BC7
:10072000F701815020F041914093F100FACFE20EA1
:10073000F31EBB2021F09092E800B12CEBCF80910A
:10074000E80085FDE7CF9092E800BB24B3942097A2
:1007500009F3F3CF5D9884E68093460110161106E5
:100760003CF081E090E0F6019383828310E000E0AA
:10077000C801DF91CF911F910F91FF90EF90DF9013
:10078000CF90BF90AF909F908F90089520912601B9
:10079000E0912901F0912A01CF01029690932A015C
:1007A00080932901222319F08591949108958081E5
:1007B000918108952D9A0895BC0190E080E00C94F9
:1007C0000E038FB18095807F669B88601C9B846040
:1007D00008951F920F920FB60F9211248F939F933B
:1007E0008091E1009091E100937F9093E10083FF7D
:1007F0000FC01092E90091E09093EB001092EC0092
:1008000092E39093ED001092550198E09093F000E0
:1008100082FF22C093E09093E9009091F200992327
:1008200019F09AE39093E80090914601992341F0E2
:1008300090914601915090934601911101C05D9AAB
:1008400090915401992341F09091540191509093CB
:100850005401911101C0289A84FF18C08091E200D0
:100860008E7E81608093E2008091E1008F7E809394
:10087000E100809147018E7E8061809347019F91C6
:100880008F910F900FBE0F901F90189580FFF7CF9C
:100890008091E2008E7E80618093E2008091E10091
:1008A0008E7E8093E100809147018E7E8160E5CF4E
:1008B0001F920F920FB60F921124CF92DF92EF92F8
:1008C000FF920F931F932F933F934F935F936F93D9
:1008D0007F938F939F93AF93BF93EF93FF93CF93A8
:1008E000DF93CDB7DEB76C97DEBFCDBF1092E900C6
:1008F0008091E80083FF25C068E0CE0145960E9404
:10090000DC0282EF8093E8008D8987FF39C09091E7
:10091000E80090FFFCCF982F907609F034C19E89B3
:100920004F89588D2F89F88C911131C0803861F52D
:10093000809145018093F1001092F1008EEF809339
:10094000E8006C960FB6F894DEBF0FBECDBFDF9106
:10095000CF91FF91EF91BF91AF919F918F917F9137
:100960006F915F914F913F912F911F910F91FF9048
:10097000EF90DF90CF900F900FBE0F901F901895C3
:100980009EEF9093E800C7CF1092F100D5CF913041
:1009900059F48111D3CF4130510581F68091450141
:1009A0008D7F80934501CACF933049F48111C6CF22
:1009B0004130510519F6809145018260F2CF9530A2
:1009C00041F48091E80080FFFCCF20682093E30091
:1009D000B5CF963009F0A9C00B8D1C8D22E0109286
:1009E000E9001092430110924201F2122EC01092BF
:1009F0004101109240010E94AB021F8299E099834D
:100A0000FA8291E09E8390EA98879AEF99872091E5
:100A1000420130914301275F3F4F3C832B838D83FD
:100A20001092E9001092430110924201109341018B
:100A30000093400149E050E0BE016F5F7F4F80E0CE
:100A40000E9485020E94AB0279CF1093410100936E
:100A500040010E94C201DC0112960D911C9101150A
:100A6000110509F451C1D801ED91FC910480F58183
:100A7000E02DBE016B5E7F4FC8010995009709F01C
:100A80003EC1F80100851185EACFF3E0FF120EC0E8
:100A90008F89882309F440C0823061F440E860E126
:100AA00083E892E00E94D607811148CF81E28093CB
:100AB000EB0047CF813029F440E86BE087E792E014
:100AC000F1CF833099F70E94C201DC011296ED90BC
:100AD000FC908E010F5F1F4F6801E114F10479F063
:100AE000D701ED91FC910680F781E02DB801C70197
:100AF0000995080F111DF701E084F184EECFD801AC
:100B00001C92F60101900020E9F73197BF016C19A2
:100B10007D0940E0C601C6CF61E672E0FB01449169
:100B200050E080E80E94850209CF973009F4BECFDB
:100B3000983021F481E08093F10000CF993009F0E2
:100B4000FDCE837009F0B2CFEEE0F1E081E031E05C
:100B500096E32191222371F08093E9003093EB001A
:100B6000DF0111972C912093EC009093ED008F5FA3
:100B7000873079F78EE78093EA001092EA008F8938
:100B800080935501DBCE8B8D9C8D1092E9001092E5
:100B90004301109242019093410180934001898D5D
:100BA000811192C08E899D89913A49F4813209F070
:100BB0007DCF47E050E065E071E080E0B3CF913257
:100BC00009F074CF833269F48F89988DB0E0A0E08A
:100BD0008093010190930201A0930301B09304015B
:100BE000ADCE803269F48091E80082FFFCCF67E0EF
:100BF00085E091E00E94DC028BEF8093E8009ECEBE
:100C0000823209F09BCE8F8980930C01EEEFFFE7D3
:100C1000859194918B3F9C4D51F1E0E0F8E08091FB
:100C2000050190910601A0910701B0910801803B58
:100C30009440A105B105F1F480910C0180FD1AC02A
:100C4000EE3F8AE0F80789F587E797E7918380838D
:100C5000809160008093440188E19BE00FB6F89496
:100C6000A895809360000FBE9093600067CEEEEF72
:100C7000FAE0D5CF808191818737974709F05ECE22
:100C8000A895809160008861809360008091440104
:100C900080936000EE3F2AE0F20789F08091FE0A1F
:100CA0009091FF0A9183808349CE8081918187371B
:100CB000980751F29093FF0A8093FE0AC5CF1092D5
:100CC000FF0A1092FE0A3ACE0E94C201DC0112967F
:100CD0000D911C910115110509F4E8CED801ED9193
:100CE000FC910190F081E02DBE016B5E7F4FC80149
:100CF0000995811123CEF80100851185EBCF1816D7
:100D000019060CF41BCED2CEF1E0FF12BECE65E682
:100D100072E004CF1F920F920FB60F9211242F93FF
:100D20003F938F939F93AF93BF938091380190919E
:100D30003901A0913A01B0913B013091320123E099
:100D4000230F2D3758F50196A11DB11D20933201B7
:100D50008093380190933901A0933A01B0933B01FD
:100D60008091330190913401A0913501B091360109
:100D70000196A11DB11D8093330190933401A0937E
:100D80003501B0933601BF91AF919F918F913F9103
:100D90002F910F900FBE0F901F90189526E8230FEC
:100DA0000296A11DB11DD2CF1F920F920FB60F92C6
:100DB0001124CF92DF92EF92FF922F933F934F93A4
:100DC0005F936F937F938F939F93AF93BF93CF93D3
:100DD000DF93EF93FF9380912E0190912F01A091CB
:100DE0003001B0913101892B8A2B8B2B09F446C03D
:100DF00080912D0181110BC088B190E4892788B9B9
:100E000080912C01882319F088B1805888B980918D
:100E10002E0190912F01A0913001B091310118164F
:100E200019061A061B069CF480912E0190912F0141
:100E3000A0913001B09131010197A109B1098093CE
:100E40002E0190932F01A0933001B0933101FF91B7
:100E5000EF91DF91CF91BF91AF919F918F917F9152
:100E60006F915F914F913F912F91FF90EF90DF90A5
:100E7000CF900F900FBE0F901F9018950E94C60341
:100E8000811520E8920761F4809171008D7F809335
:100E90007100109291004698479810922B01D7CF7D
:100EA00021E020932B01813020E8920731F4109249
:100EB0002A01109229010E94C60397FD05C02091C6
:100EC0002801222309F454C020912701211150C088
:100ED00021E020932C01EC01DF77209709F04BC033
:100EE00081E080932D0146983FE9C32E3FE0D32E49
:100EF000E12CF12CCAEFD0E0E091B405F091B505FA
:100F00000995811103C081E080932D0180912C010E
:100F1000882329F080912D01882309F43FC0479848
:100F20000E94C6030097F1F19C01DE010E94360B7E
:100F3000DC01CB0129E0B595A795979587952A9572
:100F4000D1F7109290002AE020939100D09299005E
:100F5000C092980080932E0190932F01A0933001AE
:100F6000B0933101809171008260809371006FCFE6
:100F700010922C01B0CF9E0150E040E060E472E49A
:100F80008FE090E00E94F50A69017A0181E0C81AB9
:100F9000D108E108F10810922D01AECF4699BFCFDC
:100FA000479ABECF8FEF9FEFDC01CBCFEF92FF923E
:100FB0000F931F93CF93DF93F82E192FE62E042F54
:100FC00081E0860F880F0E94570283E00E9457023B
:100FD000CF2DD12FEC0EFD2EF11CCE15DF05B9F073
:100FE00007FF13C0FE0184910E945702182F80E072
:100FF0000E945702812321968111EFCFDF91CF917B
:101000001F910F91FF90EF9008958881EDCF81E0BF
:10101000F5CFE6E5F5E01382128288EE93E0A0E0DA
:10102000B0E084839583A683B78388E191E09183C0
:1010300080838FEF9FEF9587848785E791E090937A
:10104000B5058093B40580E090E89093B305809354
:10105000B20546983E9A47983F9A0895789484B589
:10106000826084BD84B5816084BD85B5826085BDA4
:1010700085B5816085BD80916E00816080936E0032
:101080001092810080918100826080938100809124
:1010900081008160809381008091800081608093D5
:1010A00080008091910082608093910080919100F6
:1010B0008160809391008091900081608093900086
:1010C0008091C10084608093C1008091C1008260E2
:1010D0008093C1008091C10081608093C1008091A4
:1010E000C30081608093C3008091C00082608093C0
:1010F000C0008091C20081608093C20080917A001C
:10110000846080937A0080917A00826080937A0074
:1011100080917A00816080937A0080917A00806863
:1011200080937A0010925501109245011092470168
:101130008091D70081608093D70080EA8093D800A7
:1011400089B5806189BD89B5826089BD09B400FE19
:10115000FDCF61E070E080E090E00E940E0380919E
:10116000D8008F7C80618093D8008091E000807FE0
:101170008093E0008091E1008E7E8093E1008DE01D
:101180008093E200559A209A81EC80937C0085B18F
:10119000806F85B984B1877E84B984B1876E84B944
:1011A0005E9A5F988AB1806D8AB9769A6E9881B39B
:1011B000806F81BB899880B38D7080BB80E58CBDCA
:1011C00081E08DBD85E090E00E94DC035F9A85E0C0
:1011D00090E00E94DC035E985C98ECEAF0E089EB1A
:1011E00090E024912EBD00000DB407FEFDCF319696
:1011F0008E179F07B1F75C9A81E880936400809115
:10120000650081608093650080E00E9478010E9403
:10121000E10387FF15C05C9885EA8EBD00000DB420
:1012200007FEFDCF5C9A2E982F982D988091640030
:1012300080628093640081E083BF889513BEFCCFF9
:101240000E94E10382FF48C02D980E94E103847848
:101250008438E1F40E94DA0388EC90E00E94DC0319
:101260002F9882E090E00E94DF0A8F3F29F06FEF15
:1012700082E090E00E94E70A84EF91E00E94DC03A4
:101280002F9A0E94E10384788438D9F30E94E10305
:1012900084718431E1F40E94DA0388EC90E00E94CA
:1012A000DC032E9882E090E00E94DF0A882329F078
:1012B00060E082E090E00E94E70A84EF91E00E9403
:1012C000DC032E9A0E94E10384718431D9F388EC07
:1012D00090E00E94DC03B4CF0E94DA0382E090E049
:1012E0000E94DF0A882309F457C03E9A3F9A81E0A2
:1012F0008093370181E090E00E94DF0A8470982E8D
:1013000081E090E00E94DF0A81FF11C091102E98C9
:10131000C1EFDFEF08E010E07CE6E72EF12C0E9441
:10132000E10386FF3EC02E9A2F9A0E94DA0382E3E1
:1013300090E00E94DC030E94E1038111F8CF80E17C
:101340008093000166246394C6E5D1E029E6A22ECD
:1013500021E0B22E0AE611E03FE4732E40E0E42ED5
:1013600040E0F42E992493948FB7F894409138017B
:101370005091390160913A0170913B018FBF80918A
:101380003E01882309F49DC010923E01E114F1044E
:1013900059F30E940000E8CF109237013E983F9821
:1013A000A9CF992029F0C430D10511F42E9A2F9895
:1013B00081E00E9478019E01D7FF04C022273327D5
:1013C0002C1B3D0B27703327CE01D7FD079663E01A
:1013D000959587956A95E1F7D7FF05C00197A80114
:1013E000421B530B9A01BC017695762F66277795A1
:1013F00067956A5A7E4FB0E0A0E02801421A530A6E
:101400008E3F5FEF950709F43CC048E550E0FD01D1
:10141000EF5EFE4F5F013B01F0E86F0E711C8F3FE6
:101420009807A1F0F501E41BF50BE4916701C41ADC
:10143000D50AC60ED71EF0E01F01022E01C0220CF5
:101440000A94EAF7F60180802828208221153105C8
:10145000A9F0F501E41BF50BE4916701C41AD50A64
:10146000C60CD71CF0E01F01042C02C03594279451
:101470000A94E2F7F6018080282820824150510921
:1014800071F60196A85ABF4F60587F4FA03BB10537
:1014900009F0B6CF80E00E9478018FE090E00E94D2
:1014A000DC032196C931D10509F039CF992011F01B
:1014B0002F9A2D9880E991E00E94DC030E94DA03C4
:1014C00036CF90913F01F42FF91B9F2F20910001FF
:1014D000F21740F49F5F921708F058CF63BE8895CB
:1014E00013BE54CF90923E0140933F01FE01811103
:1014F0008FEF002481938193819381930394D1F79B
:10150000F5018491F80124919FE4592E871508F480
:10151000582E40913C0150913D014F5F5F4F5093D9
:101520003D0140933C0191E0322F377009F490E087
:10153000269526952695920F983008F097E044243A
:101540004394490E6BE671E08824839441EB50E0AC
:1015500090E0841481F1DA01AA5ABE4F30E020E015
:10156000251518F5FB01E20FF31F2490F0E42F9EE0
:101570001001112487FE0FC06D01E0E8CE0ED11CD2
:10158000F6012080E22DE07C3E2AF60130822F5FBA
:101590003F4F1196E5CFDC90FD2DFF73DF2ED22853
:1015A000DC92E6E0E8159CF3E7CF8394680F791F9F
:1015B00040585F4FCECF80E00E947801E7CEF99986
:1015C000FECF92BD81BDF89A992780B50895262F48
:1015D000F999FECF1FBA92BD81BD20BD0FB6F89418
:1015E000FA9AF99A0FBE01960895052E97FB1EF4FC
:1015F00000940E940C0B57FD07D00E94140B07FCAF
:1016000003D04EF40C940C0B5095409530952195D9
:101610003F4F4F4F5F4F089590958095709561951E
:101620007F4F8F4F9F4F0895A1E21A2EAA1BBB1B1D
:10163000FD010DC0AA1FBB1FEE1FFF1FA217B3079E
:10164000E407F50720F0A21BB30BE40BF50B661FB4
:10165000771F881F991F1A9469F760957095809578
:1016600090959B01AC01BD01CF010895A29FB001EF
:10167000B39FC001A39F700D811D1124911DB29FC6
:10168000700D811D1124911D0895EE0FFF1F05900F
:0A169000F491E02D0994F894FFCFC7
:10169A0010FFFFFFFF00E100000000000000C18012
:1016AA008100000000000000D6014103F701EC01AF
:0616BA003D02FB011902D4
:00000001FF
