:100000000C942D080C9455080C9455080C94550824
:100010000C9455080C9455080C9455080C945508EC
:100020000C9455080C9455080C94051F0C94741FDF
:100030000C9455080C9455080C9455080C945508CC
:100040000C9455080C9448220C9455080C945508AF
:100050000C9455080C9455080C9455080C94A62142
:100060000C9455080C9455080C9455080C9455089C
:100070000C9455080C9455080C9455080C9455088C
:100080000C94F0210C9455080C9455080C945508C8
:100090000C9455080C9455080C9455080C9455086C
:1000A0000C9455080C9455080C94550805A84CCD93
:1000B000B2D44EB93836A9020C50B9918688083CA2
:1000C000A6AAAA2ABE000000803F544845204D49F8
:1000D00054204C4943454E53452E0052454C454112
:1000E00053454420554E44455200544849532050EE
:1000F000524F4752414D2049530050524F475245AD
:100100004D4D4544204259204F424F4E4F004445EB
:1001100043454D4245522032303136002D20484F64
:100120004C4C4F57205345454B4552202D004352D0
:1001300045444954005245434F52440053544152A0
:10014000542047414D45000000000000700100C0F0
:10015000000C00CAA77C0A42F55508534248195EB4
:10016000F55112003000000027450040941C001497
:10017000F3190504F11104200400000441100400E7
:10018000040000104208015E14450F40F0010059C0
:1001900055551351555D0D8C927C085755550D5E84
:1001A00055550D51520C015E55550F5655550F00C2
:1001B000A0000000A4000000C2280080A228008047
:1001C00062080040500D0000E318009C92241F5F5D
:1001D000555D0D9C1445115F1425075F5555115F42
:1001E0005114015E54551D1F41101F40F44500106D
:1001F0000421071F41181D1F0441105EF0041F9CBD
:1002000010041F5E54450F5F9214035ED4451F5FB8
:1002100092341B5655550D41F005011F0421071F4F
:100220004208011FE4410F1743181D07C10901517E
:10023000564D1100F0450000F0010040F40100802F
:10024000100C001004411090480064800019904A7E
:100250000064800019904C0064800019904D006487
:10026000800019904F00C880F09037007880000A15
:100270009036008C800014903500A080001E9034D1
:1002800000B4800028903300C8800032903200DC37
:1002900080003C903100F08000469030000480F0F7
:1002A0009043000A904F000A904C000A80F090148E
:1002B000911301F48081F01083AC696DAD82100060
:1002C000136C69EDAD022000232CE9ED2D022020F6
:1002D00006D8D25A5AC4101082AD6D69AC83102072
:1002E00002ADED696C130020022DEDE92C23001006
:1002F000C45A5AD2D806204E4557205245434F5231
:10030000440053434F524500594F5552000000E0FE
:10031000F0F83C9C9C9C9C9C800000C060606060ED
:10032000E0C08000E0E0E0406060E0E0C06060E0ED
:10033000E0C00080C0E0E06060E0C08000E0F0F875
:100340003C1C1C1C3CF8F0E00060E0E0E00000E039
:10035000E0E06080C0E0E06060E0C08000E0E0E0FD
:10036000C0E0E000000000070F1F3C3B3B3B3F3F6D
:100370001F001C3E3F3333133F3F3F003F3F3F00D2
:1003800000003F3F3F00003F3F3F000F1F3F36361A
:100390003637370700070F1F3C3838383C1F0F0728
:1003A0000000031F3F3E3E3F1F03000F1F3F363636
:1003B00036373707003F3F3F00000000000000FCD9
:1003C000FCFC8C8CCCFCF8780080C0E0E06060E045
:1003D000C0800000C060606060E0C0800080C0E05D
:1003E000E0E0E0C0FEFEFE0020E0E0E00000E0E033
:1003F000E0600000381C1C9CFCFC78000000003F02
:100400003F3F03071F3E3E38200F1F3F363636372B
:100410003707001C3E3F3333133F3F3F000F1F3F62
:10042000313030183F3F3F000000C3CFFFFC7F1F3B
:100430000300000000383B3B390000000090064EEE
:10044000E4C0881899E0F8FC1C1CFCF8F00F1F3F72
:1004500038383F1F07383838FCFCFC00000000002B
:100460003F3F3F000000381C1C9CFCF878383C3EA5
:100470003B3B393838001CDCDCDCFC783800383990
:1004800039393F1F0E00C0F07CFCFCFC000F0F0D43
:100490000C3F3F3F0CFCFCFCFCDCDC9C003938389A
:1004A00038383F1F0FE0F0F8BCDCDCDC800F1F3F6A
:1004B00039393F1F0F1C1C1C9CDCFC7C1C00303E8F
:1004C0003F3F03000070F8FC8C8CFCF8700E1F3F5F
:1004D00031313F1F0EF0F8FC9C9CFCF8E0003939EC
:1004E000393D1F1F074F424E2D593031205645527E
:1004F00020302E333200C0C6CFDFFFFB73037CFEFB
:10050000FFC7E3FF7F3E00FFFFFF1B1B1B03000332
:1005100003FFFFFF030300000000000000008080D5
:10052000808000000000000000000000000080E06B
:10053000F058AC56AB55AB5500FF01010102020467
:100540000810608000003FFFAA55AA55AA55AA5579
:10055000A85FAC5CAC5CAC5CAC5C0CCF3C0000005D
:100560000103060D1A152A252A252A252215120906
:10057000040201000000FFFF57AB57AB57AB57AB6E
:1005800003FF808080000000000000000000FFFFEB
:1005900055AA55AA55AA55AA00FF0000000101025C
:1005A000040830C000001F7FD5AA55AA55AA55AA35
:1005B00054AF56AE56AE56AE562E86671E0000009D
:1005C000000103060D0A151215121512110A09046D
:1005D0000201000000000000000000008080C0C098
:1005E000C0C0808080000000000000000000C0F05B
:1005F00078AC56AB55AA55AA00FF000000010102D5
:10060000040830C00000FFFF55AA55AA55AA55AAF4
:1006100000FFFEAE56AE56AE56AE5607FE001F1792
:100620001512151215121512101F17121512151288
:10063000151215101F009045000A80F03C7EFFFF48
:10064000FF7E3CFD8181FDFDFDFEC0C0FEFD8D8D68
:10065000FDFDFDFEC6C6FEDDDDDDDDFDFDEEEEEEE3
:10066000EE1C0100000E01FA000000EA00DB00CAE7
:1006700000504C41592054494D45202000504C41D8
:100680005920434F554E5420005D20005B004245E9
:1006900053542031302053434F524553004F464668
:1006A000004F4E00534F554E4420003C01A40635E8
:1006B000012E0153434F5245004C4153540000005A
:1006C000000000000080C0E0F070787800F8FC06C0
:1006D000F3F9FDFDFDF9F204F80060408000000030
:1006E000000000000000000000E0D8D6CBD4EAE40F
:1006F000EAF5F2F5F2F9F7F6ECEDEBEBEBE9F4FAEB
:10070000F9F8FA797A7B7C600000000000000000B4
:10071000000707073FC70703AB53FBFBFBFDFD814A
:1007200081FDFDFDFEC0C0FEFEFEFEFF1F000000BD
:1007300000000000000000C0201028488404A556D6
:10074000AC59AA5DB757B76FAF69A828E86EAF5725
:10075000B757AB54AA56EA42E2160C0408F000035D
:10076000040404050203010FF920202522252A355F
:100770002A35EA203FF52A352A25222520F03F0098
:10078000000101010100F0F8FCFEFE9E1E1E1E1E6F
:100790003C00000000008080C0C0C0C0C0C080001D
:1007A000000000008080C0C0C0C0C0C08000000049
:1007B000FFFFFFFFFF000080C0C0C0C0C0C000003E
:1007C0008080C0C0C0C0C0C080000000C0C0C0C029
:1007D000C080C0C0C000E1C3C7878F8F9FFFFEFEEF
:1007E000FCF800007CFFFFFFFFBB39393F3F3FBFF4
:1007F0003E007CFFFFFFFFBB39393F3F3FBF3E005C
:10080000FFFFFFFFFF187EFFFFFFFFE783007CFF76
:10081000FFFFFFBB39393F3F3FBF3E00FFFFFFFFF8
:10082000FF0703030300030707070707070703037F
:10083000010000000001030307070707070707037C
:10084000000000010303070707070707070300006D
:100850000707070707000001070707070707040145
:100860000303070707070707070300000707070732
:10087000070000000000FEFEFEFEFE8080808080FB
:100880008080FEFEFEFEFE000000008080C0C0C032
:10089000C0C0C08080000000FFFFFFFFFF0000FF1E
:1008A000FFFFFFFF000000008080C0C0C0C0C0C0CC
:1008B00080800000C0C0C0C0C0C0000000C0C0C078
:1008C000C0C0800000C0C0C0C0C0FFFFFFFFFF0F5E
:1008D0000F0F0F0F0F0FFFFFFFFFFF00007CFFFF49
:1008E000FFFFC78383C7FFFFFFFF7C00FFFFFFFF02
:1008F000FF0000FFFFFFFFFF00007CFFFFFFFFC7BF
:100900008383C7FFFFFFFF7C000F7FFFFFFFF0F037
:10091000FFFF1F1FFFFFFFF0F0FFFF7F070007072C
:10092000070707000000000000000707070707008F
:10093000000001030307070707070703030100007F
:100940000707070707000007070707070000000160
:100950000303070707070707030301000000000759
:100960000707070707030000070707070707030034
:100970000000904A001480F000000000003E5B4F31
:100980005B3E3E6B4F6B3E1C3E7C3E1C183C7E3CEF
:10099000181C577D571C1C5E7F5E1C00183C1800FD
:1009A000FFE7C3E7FF0018241800FFE7DBE7FF308D
:1009B000483A060E2629792926407F050507407FFB
:1009C00005253F5A3CE73C5A7F3E1C1C08081C1C6E
:1009D0003E7F14227F22145F5F005F5F06097F0164
:1009E0007F006689956A606060606094A2FFA2944F
:1009F00008047E040810207E201008082A1C08081D
:100A00001C2A08081E101010100C1E0C1E0C30386A
:100A10003E3830060E3E0E06000000000000005F6B
:100A200000000007000700147F147F14242A7F2A87
:100A30001223130864623649562050000807030049
:100A4000001C2241000041221C002A1C7F1C2A0895
:100A5000083E0808008070300008080808080000F8
:100A600060600020100804023E5149453E00427F6C
:100A7000400072494949462141494D331814127FBB
:100A80001027454545393C4A49493141211109075B
:100A90003649494936464949291E000014000000DC
:100AA00040340000000814224114141414140041AE
:100AB00022140802015909063E415D594E7C12116B
:100AC000127C7F494949363E414141227F414141A3
:100AD0003E7F494949417F090909013E414151731E
:100AE0007F0808087F00417F41002040413F017F8F
:100AF000081422417F404040407F021C027F7F0457
:100B000008107F3E4141413E7F090909063E41519F
:100B1000215E7F09192946264949493203017F018F
:100B2000033F4040403F1F2040201F3F4038403F90
:100B3000631408146303047804036159494D4300A6
:100B40007F4141410204081020004141417F0402DD
:100B50000102044040404040000307080020545474
:100B600078407F2844443838444444283844442852
:100B70007F385454541800087E090218A4A49C78A5
:100B80007F0804047800447D40002040403D007F01
:100B90001028440000417F40007C047804787C08E1
:100BA0000404783844444438FC18242418182424B5
:100BB00018FC7C08040408485454542404043F449A
:100BC000243C4040207C1C2040201C3C4030403CC9
:100BD00044281028444C9090907C4464544C440029
:100BE000083641000000770000004136080002018D
:100BF0000204023C2623263C1EA1A161123A404079
:100C0000207A3854545559215555794121545478F6
:100C100041215554784020545579400C1E5272128F
:100C20003955555559395454545939555454580017
:100C300000457C410002457D420001457C40F02991
:100C40002429F0F0282528F07C54554500205454E0
:100C50007C547C0A097F4932494949323248484824
:100C600032324A4848303A4141217A3A424020786B
:100C7000009DA0A07D39444444393D4040403D3C66
:100C800024FF2424487E4943662B2FFC2F2BFF0989
:100C900029F620C0887E090320545479410000447D
:100CA0007D413048484A32384040227A007A0A0A68
:100CB000727D0D19317D2629292F282629292926DB
:100CC00030484D4020380808080808080808382F20
:100CD00010C8ACBA2F102834FA00007B00000814AA
:100CE0002A142222142A14089500220095AA0055DD
:100CF00000AAAA55AA55AA000000FF00101010FF74
:100D000000141414FF001010FF00FF1010F010F07A
:100D1000141414FC001414F700FF0000FF00FF146B
:100D200014F404FC141417101F10101F101F1414B7
:100D3000141F00101010F0000000001F1010101001
:100D40001F10101010F010000000FF1010101010F5
:100D500010101010FF10000000FF140000FF00FF33
:100D600000001F10170000FC04F4141417101714CF
:100D700014F404F40000FF00F714141414141414F1
:100D8000F700F7141414171410101F101F14141464
:100D9000F4141010F010F000001F101F0000001FCE
:100DA00014000000FC140000F010F01010FF10FF01
:100DB000141414FF141010101F00000000F010FF96
:100DC000FFFFFFFFF0F0F0F0F0FFFFFF000000007A
:100DD00000FFFF0F0F0F0F0F38444438447C2A2ABE
:100DE0003E147E02020606027E027E0263554941DF
:100DF000633844443C04407E201E2006027E0202EA
:100E000099A5E7A5991C2A492A1C4C7201724C30FD
:100E10004A4D4D303048784830BC625A463D3E49D4
:100E20004949007E0101017E2A2A2A2A2A44445F78
:100E3000444440514A444040444A51400000FF016C
:100E400003E080FF000008086B6B0836123624367A
:100E5000060F090F060000181800000010100030DF
:100E600040FF0101001F01011E00191D1712003C67
:100E70003C3C3C0000000000060115012601370142
:100E80004A015D01720188019F01B801D201EE01A2
:100E90000B022A024B026E029302BA02E402100312
:100EA0003F037003A403DC03170455049704DD0417
:100EB00027057505C80520067D06E0064907B80721
:100EC0002D08A9082D09B9094D0AEA0A900B400C12
:100ED000FA0CC00D910E6F0F5A1053115B12721362
:100EE0009A14D41520178018F519801B231DDE1EB7
:100EF000B420A622B524E4263429A72B402E0031A5
:100F0000EA330037453ABC3D68414C456B49C84D12
:100F100068524F57805C0062101112131516171893
:100F20001A1C1D1F21232527292C2E3134373A3E28
:100F30004145494E52575C62686E757B838B939C2A
:100F4000A5AFB9C4D0DCE9F70000000200090F002A
:100F500000030401000C000000000000000000007D
:100F60000000000000000003010000000024002732
:100F7000002A002D003000D5F08D14A1C881CFD9F2
:100F8000F1AF200004080201104080401020408092
:100F900040800802040180402010020110801020CF
:100FA00040402000000000250028002B002E0031CA
:100FB0000004040404040304050202020204030200
:100FC00002020206060606060604040202020404E1
:100FD00014021302120215020702080204010C0196
:100FE000060100080B0002020200000904000001D3
:100FF000020200000524001001052401010104245F
:1010000002060524060001070581031000400904BB
:101010000100020A00000007050202400000070567
:1010200083024000000403090412010002EF0201E0
:101030004041233680000101020301417264756959
:101040006E6F204C4C430041726475696E6F204C8A
:10105000656F6E6172646F00B32211241FBECFEF03
:10106000DAE0DEBFCDBF11E0A0E0B1E0E2EFF8E5ED
:1010700002C005900D92A635B107D9F727E0A6E585
:10108000B1E001C01D92AE38B207E1F718E0CDE241
:10109000D8E004C02197FE010E948B29CC32D107F1
:1010A000C9F70E94EA220C94772C0C940000CF938D
:1010B000DF93DC0177FF13C022273327261B370B72
:1010C000842F042E000C990B281739072CF4460F97
:1010D00070E060E0141644F0DF91CF91089514168B
:1010E000DCF760347105C4F7A038B105A9F3262FE9
:1010F000CB01840F911D47FD9A958134910514F021
:1011000040E4461B27709FEF022E01C0990F0A94FE
:10111000EAF7420F621B710977FF02C0695F7F4FD8
:1011200083E0759567958A95E1F7FB01F695FE2FAB
:10113000EE27F795E795EA0FFB1FEE57FC4F28E0E7
:1011400030E06FEF70E014163CF6483064F4D901DB
:10115000A41BB10947FDB395EB0102C0D595C79516
:10116000AA95E2F79C238081982B90834850E05801
:10117000FF4F9FEFE8CF0F93CF93DF9377FF14C01C
:10118000AA27BB27A61BB70BE22F022E000CFF0BD2
:10119000AE17BF072CF4260F70E060E012163CF08B
:1011A000DF91CF910F91089560347105CCF7FC0168
:1011B000E40FF11DE138F10514F040E8481B562F0B
:1011C000FB01E20FF11D27FDFA95E134F10514F062
:1011D00020E4261B57703FEF052E01C0330F0A9401
:1011E000EAF7250F651B710977FF02C0695F7F4F22
:1011F00053E0759567955A95E1F77695762F6627B2
:1012000077956795860F971F8E579C4FA8E0B0E0A3
:10121000CFEFD0E0121624F6283064F4BD01621B33
:10122000710927FD7395FE0102C0F595E7956A9552
:10123000E2F73E2301110DC03095FC01542F60816F
:10124000632361935150D9F7285080589F4F3FEF47
:10125000E1CFFC01542F6081632B61935150D9F78A
:10126000F3CF2F923F924F925F926F927F928F9225
:101270009F92AF92BF92CF92DF92EF92FF920F9325
:101280001F93CF93DF9300D000D0CDB7DEB7822E6F
:10129000912C9401280F391F37FDB0C0803891057B
:1012A0000CF0ACC09B01200F311D37FDA7C060348E
:1012B00071050CF0A3C0DB0177FF04C0AA27BB2790
:1012C000A61BB70BA770BB279B0177FF02C0295F46
:1012D0003F4FF3E035952795FA95E1F777FF08C082
:1012E0002150310968E070E0FB01EA1BFB0BDF01D4
:1012F000202E269426942694312C077019F0FFEFA7
:101300002F1A3F0AB9017695762F6627779567954C
:10131000680F791F62597C4F8A01220E331E48E004
:1013200050E03A016A1A7B0A2F3F4FEF34070CF462
:1013300058C07C836B836C0150E040E02B01F0E8E7
:101340004F0E511CD7FC3BC02F3F320709F4A6C0FB
:101350005A01A00EB11EEB81FC81F488F1E0EF127E
:1013600064C0F501A490EA2D0A2E01C0EE0F0A9484
:10137000EAF7FE2AEB81FC81F48A109701F127300D
:101380003105E9F0FA01E00FF11FFA83E983520118
:10139000A40EB51EF501F488F1E0EF125FC0E981FB
:1013A000FA81F491EF2FF0E0FA83E983062C02C072
:1013B000F595E7950A94E2F7FE2AF501F48A4F5F66
:1013C0005F4FFFEFCF1ADF0AEB81FC813196FC8380
:1013D000EB83481559052CF4E0E8CE16D10409F04A
:1013E000B1CF2F5F3F4F60587F4F080D191D221559
:1013F000330521F02830310509F096CF0F900F907A
:101400000F900F90DF91CF911F910F91FF90EF9070
:10141000DF90CF90BF90AF909F908F907F906F9014
:101420005F904F903F902F900895F501E1100DC00F
:10143000A490EA2DF0E00A2E02C0EE0FFF1F0A94DE
:10144000E2F7E095F095FE2295CFA490EA2D0A2EC2
:1014500001C0EE0F0A94EAF7FE268CCFE981FA81EB
:10146000E1100FC0F491EF2FF0E0FA83E983062C2E
:1014700002C0F595E7950A94E2F7E095F095FE2213
:101480009CCFF491EF2FF0E0FA83E983062C02C0A1
:10149000F595E7950A94E2F7FE268FCF109709F0AD
:1014A00071CF8DCF82E893E020E0B22FB111BFEF72
:1014B000FC010024B193B193B193B1930394D1F79C
:1014C0000895FC0180911603882311F13FB7F89429
:1014D00082E08093E9002091F200822F90E01816BC
:1014E000190614F481E090E0882339F0289844E646
:1014F000409315034091F1004083222339F020915D
:10150000F200211103C02BE62093E8003FBF0895AD
:101510008FEF9FEF08952FB7F89483E08093E90051
:101520009091E800892F807295FF04C09091F2009D
:1015300080E4891B2FBF089580910D0381110DC098
:1015400082E08093090384E080930A0310920C03E5
:1015500010920B0381E080930D0389E093E00895DE
:10156000CF93DF931F92CDB7DEB76983DC01ED9196
:10157000FC910280F381E02D41E050E0BE016F5FFD
:101580007F4F09950F90DF91CF91089583E080936D
:10159000E9008091F200882319F08AE38093E80043
:1015A00008950E948B0A90E00895CF93DF931F92D5
:1015B000CDB7DEB7FC018485958597FD08C02FEF78
:1015C0003FEF358724870F90DF91CF910895CE01AB
:1015D00001960E94610A019719F4898190E0F3CF86
:1015E0008FEF9FEFF0CF0F931F93CF93DF931F9257
:1015F000CDB7DEB78C01FC018485958597FF0BC0C4
:10160000CE0101960E94610A019771F4898190E0F0
:10161000F80195878487F801848595850F90DF917F
:10162000CF911F910F9108958FEF9FEFF1CFFC01A4
:101630008485958597FD0BC09FB7F89482E08093D1
:10164000E9008091F2009FBF90E0019608959FB756
:10165000F89482E08093E9008091F2009FBF90E0CF
:1016600008954091030350910403209101033091A8
:10167000020342175307B4F49091E8009570E1F328
:101680009091E80092FD19C08093F10080910303CE
:101690009091040301968F739927892B19F48EEF8B
:1016A0008093E80080910303909104030196909346
:1016B00004038093030381E0089580E00895EF928E
:1016C000FF920F931F93CF93DF93F82E192FE62EDF
:1016D000042F81E0860F880F0E94310B83E00E9467
:1016E000310BCF2DD12FEC0EFD2EF11CCE15DF05C9
:1016F000B9F007FF13C0FE0184910E94310B182F2F
:1017000080E00E94310B812321968111EFCFDF9180
:10171000CF911F910F91FF90EF9008958881EDCFA9
:1017200081E0F5CFDF92EF92FF920F931F93CF935B
:10173000DF93D82E8A01EB017B01E40EF51ECE1556
:10174000DF0559F0D7FE12C0FE0184910E94310BD3
:1017500021968111F4CF0FEF1FEFC801DF91CF91D8
:101760001F910F91FF90EF90DF9008958881EECF49
:101770000F931F93CF93DF931F92CDB7DEB782E015
:10178000898342E450E063EE7FE080E80E94920BA0
:101790000E949C0ADC0112960D911C910115110505
:1017A00089F0D801ED91FC910280F381E02DBE011A
:1017B0006F5F7F4FC801099597FD04C0F801008550
:1017C0001185ECCF89810F90DF91CF911F910F91FF
:1017D0000895615030F02091F100FC0120830196C2
:1017E000F8CF289884E680931503089588E78093BE
:1017F000FA020895AF92BF92CF92DF92EF92FF92DA
:101800000F931F93CF93DF936C017B018B01040F28
:10181000151FEB015E01AE18BF08C017D10759F0C4
:101820006991D601ED91FC910190F081E02DC60106
:101830000995892B79F7C501DF91CF911F910F9100
:10184000FF90EF90DF90CF90BF90AF900895282F3A
:1018500030E0F901E85BF04F9491F901EC57F04F5B
:1018600084912F54304FF9012491222309F430C080
:101870009923E9F091509F30D0F4E92FF0E0ED5B2F
:10188000F34F0C948B29710C750C520C690C6D0C78
:10189000570C570C570C780C7E0C820C860C8C0C59
:1018A000570C900C909180009F7790938000E22FCE
:1018B000F0E0EE0FFF1FED55F04FA591B4919FB7EB
:1018C000F894EC91611132C080958E238C939FBF68
:1018D0000895909180009F7DE8CF90918000977F40
:1018E000E4CF94B59F7794BDE2CF94B59F7DFBCFB5
:1018F000909190009F7790939000D9CF9091900015
:101900009F7DF9CF90919000977FF5CF9091C00087
:101910009F779093C000CBCF9091C0009F7DF9CF6F
:101920009091C200977F9093C200C1CF8E2BCECFF3
:10193000CF93DF9390E0FC01EC57F04F24918F544C
:10194000904FFC0184918823C9F090E0880F991F83
:10195000FC01E759F04FA591B491FC01ED55F04F12
:10196000C591D49161110DC09FB7F8948C912095C9
:1019700082238C938881282328839FBFDF91CF9176
:101980000895623051F49FB7F8943C91822F80956E
:1019900083238C93E8812E2BEFCF8FB7F894EC91B3
:1019A0002E2B2C938FBFEACF1F93CF93DF93182F4B
:1019B000EB0161E00E94980C209739F460E0812FE0
:1019C000DF91CF911F910C94270CCF3FD10511F4DB
:1019D00061E0F5CFE12FF0E0E85BF04FE491E150FA
:1019E000EF3008F07FC0F0E0E850F34F0C948B2903
:1019F000070D0F0D140D1E0D280D720D720D720DB9
:101A0000320D3C0D460D500D5D0D720D650D84B50A
:101A1000806884BDC7BDDF91CF911F91089584B5C3
:101A2000806284BDC8BDF7CF8091800080688093BC
:101A30008000D0938900C0938800EDCF8091800012
:101A4000806280938000D0938B00C0938A00E3CFA4
:101A500080918000886080938000D0938D00C09337
:101A60008C00D9CF80919000806880939000D093B3
:101A70009900C0939800CFCF8091900080628093AE
:101A80009000D0939B00C0939A00C5CF80919000A6
:101A9000886080939000D0939D00C0939C00BBCF42
:101AA0008091C00080688093C0008091C0008F7BCF
:101AB0008093C000C093CF00AECF8091C000806201
:101AC0008093C000C093D000A6CF8091C2008860F0
:101AD0008093C2008091C2008B7F8093C200C0932C
:101AE000D20099CFC038D1050CF072CF67CF3FB785
:101AF000F8948091E9029091EA02A091EB02B091F2
:101B0000EC0226B5A89B05C02F3F19F00196A11D38
:101B1000B11D3FBFBA2FA92F982F8827BC01CD0137
:101B2000620F711D811D911D42E0660F771F881F96
:101B3000991F4A95D1F708958F929F92AF92BF92C5
:101B4000CF92DF92EF92FF924B015C010E94770DE2
:101B50006B017C010E94770D6C197D098E099F092C
:101B6000683E734081059105A8F321E0821A91082F
:101B7000A108B10888EEC80E83E0D81EE11CF11C54
:101B800081149104A104B10429F7FF90EF90DF9034
:101B9000CF90BF90AF909F908F9008958F929F921B
:101BA000AF92BF92CF92DF92EF92FF920F931F936B
:101BB000CF93DF936C017B018A0180910B01882315
:101BC00009F45CC080911603882309F457C0809102
:101BD000080380FF05C08091E00082608093E000F0
:101BE000E801B12C8AEFA82E93E0892E2AE3922EE9
:101BF000209711F4BB20D9F10E948B0A81110AC0F1
:101C0000AA94AA20D9F161E070E080E090E00E94FF
:101C10009C0DEECF8C171D0611F00CF08C2F9FB78A
:101C2000F8948092E9002091E80025FD02C09FBF52
:101C3000DFCF282F30E0C21BD30BF701815020F0FB
:101C400041914093F100FACFE20EF31EBB2021F048
:101C50009092E800B12CEBCF8091E80085FDE7CFB2
:101C60009092E800BB24B394209709F3F3CF5D98DA
:101C700084E680930703101611063CF081E090E0A3
:101C8000F6019383828310E000E0C801DF91CF91D9
:101C90001F910F91FF90EF90DF90CF90BF90AF908A
:101CA0009F908F9008954FB18CB123B190E08095B3
:101CB000909533E0959587953A95E1F7887030E0F7
:101CC0002095309535952795359527952470822B4D
:101CD000942F9095907F892B089583B7817F83BF40
:101CE00083B7816083BF889583B78E7F83BF089554
:101CF000E091F802F091F90290818091F702982B1F
:101D00009083A091F502B091F6022C919091F4028B
:101D1000909592239C939081809589238083089548
:101D2000E091F502F091F60280819091F402892B06
:101D30008083E091F802F091F90290818091F7029E
:101D40008095892380830895CF92DF92EF92FF924E
:101D50000F931F93CF93E82FF0E0E959F04FC49110
:101D6000E62FF0E0603398F5E85EF04FE4910E2F37
:101D700010E0F12CE12C60E074E284EF90E0A70128
:101D800098010E94E926215031094109510991E049
:101D90002115310581E0480751056CF060E970EDCF
:101DA00083E090E0A70198010E94E92621503109C3
:101DB0004109510993E0C13089F0C330F9F0CF9166
:101DC0001F910F91FF90EF90DF90CF900895EE0F4D
:101DD000FF1FE85EF14F05911491CBCF80918100F8
:101DE000887F892B8093810030938900209388001D
:101DF00080916F00826080936F00E1CF80919100AD
:101E0000887F892B809391003093990020939800CC
:101E10001093E7020093E60281E08093E50280914F
:101E20007100826080937100CACFE82FF0E0E95919
:101E3000F04FE491E13019F0E33089F0089580919A
:101E40006F008D7F80936F008091F002E091F1022E
:101E5000F091F202908180958923808308951092F9
:101E6000E5028091ED02E091EE02F091EF02F2CFF7
:101E7000E0911903F0911A03BF016F5F7F4F7093D8
:101E80001A03609319032491922F907F822F8F70F1
:101E9000903819F40E94150FEBCF903981F43296E7
:101EA000F0931A03E0931903FB01649190911703D7
:101EB0008917F0F667FDDCCF0E94A40ED9CF903EC3
:101EC00049F480911B0390911C0390931A03809313
:101ED0001903CECF903F19F410921803089597FD7F
:101EE000C7CF3296F0931A03E0931903FB01649174
:101EF000A091E602B091E702322F262F0E943D27E3
:101F00006C507E4F8F4F9F4F28EE33E040E050E003
:101F10000E941B272093E1023093E2024093E302E8
:101F20005093E4028091E1029091E202A091E302D9
:101F3000B091E402892B8A2B8B2B61F481E090E035
:101F4000A0E0B0E08093E1029093E202A093E3026C
:101F5000B093E40208950F931F93CF93DF932091E2
:101F60001D03222329F1162FEC01809118038823E9
:101F700081F080918C078617D8F000E080911703DC
:101F8000081728F4802F0E94150F0F5FF7CF1092CB
:101F9000180310938C07D0931C03C0931B03D0939A
:101FA0001A03C09319030E94380F81E0809318032D
:101FB000DF91CF911F910F91089510921D03E4E6D8
:101FC000F0E0808188608083E5E6F0E080818860D1
:101FD00080830895E4E6F0E08081877F8083E5E6F2
:101FE000F0E08081877F808381E080931D030895E6
:101FF00060387105E8F440345105D0F4342F36953B
:1020000036953695A0E83A9FF0011124E60FF71FA8
:10201000E80FF91F3489CA018770992741E050E021
:1020200001C0440F8A95EAF7222319F0432B448B11
:10203000089540954323FBCF2F923F924F925F929A
:102040006F927F928F929F92AF92BF92CF92DF92C8
:10205000EF92FF920F931F93CF93DF93CDB7DEB72D
:102060002D970FB6F894DEBF0FBECDBF6A3069F56D
:10207000FC01EA5EFB4FDC01A85EBB4F2C9148E0FF
:10208000249F9001112440815181240F351F3183F9
:10209000208314971D921C922D960FB6F894DEBFE4
:1020A0000FBECDBFDF91CF911F910F91FF90EF90A9
:1020B000DF90CF90BF90AF909F908F907F906F9068
:1020C0005F904F903F902F9008956D3029F39D873A
:1020D0008C878C5E9B4F9A838983FC0180809180E2
:1020E0002C853D85285E3B4F3C832B8330E883164F
:1020F00091040CF071C0EC85FD85EA5EFB4F6080B9
:10210000718040E4641671040CF066C0AB81BC8140
:102110004C9045E09401449E200D311D112412166F
:1021200013060CF059C0242C312C910153E0220FDE
:10213000331F5A95E1F7260D371D121613060CF0C2
:102140004BC0649FB001112410E000E0FB01E8588F
:10215000F64FFB87EA87E0E0053029F0EA85FB854A
:10216000E00FF11FE491530198E0592E2E2F30E03B
:102170003E832D83E170EF83F12CE12CE414D8F43D
:10218000C4018E0D9F1D99878887D12CC12CC41442
:1021900070F4A6014A0D5B1D2F81688579858C85B9
:1021A0009D850E94F80F9FEFC91AD90AF0CFAFEFB3
:1021B000EA1AFA0AE3CFED81FE81F595E7955A9484
:1021C000A20CB31C5110D2CF0F5F1F4F820C931C77
:1021D0000630110509F0BFCFEB81FC812081422F31
:1021E00050E0A981BA818D919C91B6E02B9F800D22
:1021F000911D1124E981FA8191838083EC85FD850D
:10220000E75EFB4F2081222309F446CF6AEF640387
:102210009001659F300D112420583F4F2817390732
:102220000CF03ACFAC85BD85ED91FC9111970190F2
:10223000F081E02D6AE0CD012D960FB6F894DEBF57
:102240000FBECDBFDF91CF911F910F91FF90EF9007
:10225000DF90CF90BF90AF909F908F907F906F90C6
:102260005F904F903F902F9009946FEF82E799E035
:102270000C94AB0FCF93DF93D091FA02D150D0934F
:10228000FA022D2F2F50330BC90163E070E00E943A
:1022900077298AE39AEAA3EEBEEE04C0B695A79525
:1022A000979587956A95D2F7C82FC170C093B402ED
:1022B0006FEF70E08AE00E94D40C6FEF70E08BE06B
:1022C0000E94D40C8FE7C89F802D11246FEF70E01F
:1022D000681B710989E00E94D40C81E0D11180E073
:1022E000DF91CF910895CF92DF92EF920F931F93DA
:1022F000CF93DF93EC016B018A014A3051055CF00A
:10230000CA016AE070E00E947729AB01B601CE01F4
:102310000A970E947311C8016AE070E00E94772951
:10232000AC0184E0440F551F8A95E1F74B5B5B4F8E
:10233000EE24E39400E128E0B601CE010E943109C9
:10234000DF91CF911F910F91EF90DF90CF90089583
:102350002F923F924F925F926F927F928F929F92B5
:10236000AF92BF92CF92DF92EF92FF920F931F93A3
:10237000CF93DF93CDB7DEB72F970FB6F894DEBFBC
:102380000FBECDBF6A3071F5FC01EA5EFB4FDC0188
:10239000A85EBB4F4C912081318156E0459F200DB6
:1023A000311D11243183208314971D921C9281E0EA
:1023B00090E02F960FB6F894DEBF0FBECDBFDF9131
:1023C000CF911F910F91FF90EF90DF90CF90BF9032
:1023D000AF909F908F907F906F905F904F903F90C5
:1023E0002F90089520EE260F203408F79F878E87C0
:1023F0008C5E9B4F9E838D83FC01008111812E8515
:102400003F85285E3B4F39872887003811050CF03F
:1024100065C0EE85FF85EA5EFB4F808191819B83DD
:102420008A83803491050CF059C0D9018C91482ED3
:10243000512C9801B5E08B9F200D311D112437FDE3
:102440004DC02A813B81E6E08E9F200D311D112475
:1024500037FD44C0EE85FF85E55EFB4F7080EE855D
:10246000FF85E65EFB4F608024E0629FF00111244F
:10247000E953FF4F85909590A590B490813009F075
:102480005FC026E0D22EF12CE12CD501C401817071
:102490009927AA27BB2780FC02C0761479F0262D45
:1024A000892B8A2B8B2B09F4272D4A815B814E0DBA
:1024B0005F1DB8018E859F850E94F80FB694A79482
:1024C000979487943FEFE31AF30A56E0E516F10478
:1024D000E1F6DA940F5F1F4FD110D5CFA885B985EB
:1024E0002C91422F50E0ED81FE8180819181F6E0B8
:1024F0002F9F800D911D1124AD81BE818D939C93E2
:10250000EE85FF85E75EFB4F2081222309F44FCF44
:102510006AEF64039001659F300D112420583F4FEE
:10252000281739070CF043CFAE85BF85ED91FC919C
:1025300011970190F081E02D6AE0CD01099537CF28
:10254000180186E089830A811B8196E09C83D10172
:10255000A40DB51DBD87AC87D501C4018170992735
:10256000AA27BB2780FC02C0761481F1892B8A2B15
:102570008B2B31F16F826101F801E40DF51DFB87B2
:10258000EA872C853D85C216D30604F5780117FF2E
:1025900002C0F12CE12C8A859B858134910514F0D1
:1025A00080E490E0E816F9066CF42F81A701B601EB
:1025B0008E859F850E94F80F3FEFE31AF30AEBCF59
:1025C0007F82D9CF5FEFC51AD50ADBCFB694A79427
:1025D000979487948C8181508C83040D151D8111F3
:1025E000BBCF998191509983240C351C9111ABCFAD
:1025F00075CFEF92FF920F931F93CF93DF938C01D0
:102600007B01D0E0C0E0F701EC0FFD1F6491662371
:1026100039F0C8010E94A811892B11F02196F3CF3F
:10262000CE01DF91CF911F910F91FF90EF90089510
:102630008F929F92AF92BF92CF92DF92EF920F93C1
:10264000CF93DF930E94520A2091FA0288E790E02C
:10265000821B910968E270E00E9477294B0186E1B4
:10266000C82E85E0D82E9CE1A92EB12CD0E0C0E088
:1026700081E090E08C169D0611F090E080E02091C2
:10268000B402289FB001299F700D1124645F7F4F11
:10269000EE24E39400E228E1A601C5010E9431097D
:1026A000219688E1A80EB11C80E6C80ED11CC3306B
:1026B000D105F1F608E020E246EF54E06CE270E06C
:1026C00084E490E00E94310980E190E090938307D8
:1026D000809382078AE390E0909385078093840734
:1026E00065EE74E08EE693E0DF91CF910F91EF906D
:1026F000DF90CF90BF90AF909F908F900C94F91285
:10270000089590E080E00895FB0101900020E9F732
:102710003197AF01461B570B0C94FA0B8F929F9287
:10272000AF92BF920F931F93CF93DF93CDB7DEB7D6
:10273000A1970FB6F894DEBF0FBECDBF19A24230ED
:1027400008F44AE08E010F5D1F4F842E912CB12CAE
:10275000A12CA50194010E941B27E62FB901CA01F3
:10276000EA3004F5E05DD801EE938D01232B242B94
:10277000252B79F790E080E0109729F0BD018EE6D7
:1027800093E00E948413A1960FB6F894DEBF0FBEAB
:10279000CDBFDF91CF911F910F91BF90AF909F90D0
:1027A0008F900895E95CDFCF0E94A529AB01BC01A1
:1027B000F999FECF8091DA029091DB020E94CC263B
:1027C0008091DA029091DB0204969093DB02809371
:1027D000DA020895F999FECFBC018091DA02909156
:1027E000DB020E94D4268091DA029091DB020296ED
:1027F0009093DB028093DA020895CF93DF93F999E7
:10280000FECFC091DA02D091DB02CE010E94B22647
:102810002496D093DB02C093DA02DF91CF91089522
:10282000CF93DF93F999FECFC091DA02D091DB020A
:10283000CE010E94B8262296D093DB02C093DA0222
:10284000DF91CF9108952F923F924F925F926F92B6
:102850007F928F929F92AF92BF92CF92DF92EF9230
:10286000FF920F931F93CF93DF93CDB7DEB7689797
:102870000FB6F894DEBF0FBECDBF8091D90288237A
:1028800071F01091D8020E94520A113009F40CC163
:1028900008F447C0123009F4FDC11092D9028091AA
:1028A000D802811125C08091B9028695869563E092
:1028B00070E0681B710977FD60E0633009F461E046
:1028C0008AE0689FB00111246D5B794F4AE050E0C7
:1028D00086E196E00E948F26E090B80208E027E0AB
:1028E0004CE356E06AE170E086E190E00E94310935
:1028F00068960FB6F894DEBF0FBECDBFDF91CF91C3
:102900001F910F91FF90EF90DF90CF90BF90AF900D
:102910009F908F907F906F905F904F903F902F90FF
:102920000895EE24E39404E124E546E758E070E0DE
:1029300060E083E090E00E94310920E546E857E03E
:1029400063E170E08DE290E00E94310908E228E244
:102950004EEB56E068E170E084E090E00E943109BF
:102960008091D6029091D7029E012F5F3F4F79014F
:10297000892B09F443C002E610E01093830700930B
:102980008207109285071092840769EB76E08EE645
:1029900093E00E94F912109383070093820786E068
:1029A00090E0909385078093840763EB76E08EE652
:1029B00093E00E94F9128091D7028F938091D60202
:1029C0008F938BE491E09F938F93FF92EF920E94FD
:1029D000AA2910938307009382078EE090E09093DA
:1029E000850780938407B7018EE693E00E948413E5
:1029F0000F900F900F900F900F900F906BEAA62EF4
:102A000066E0B62E78E2C72ED12C10E000E0F5018A
:102A100085909490B401C7010E9498268091D502B8
:102A2000082E000C990B80179107D9F58CE390E0E4
:102A30009093830780938207D0928507C092840782
:102A4000B7018EE693E00E94841334EA831636E0E1
:102A5000930661F48091D40261EA76E0811102C0AC
:102A60006DE976E08EE693E00E94F9120F5F1F4F4A
:102A700082E0A80EB11C96E0C90ED11C04301105ED
:102A800031F66091D502E6E06E02B0011124685D76
:102A90007F4F01E025E045E084E390E00E94BB0821
:102AA000FCCE80E490E0C4CF86E190E09093830771
:102AB0008093820784E090E0909385078093840759
:102AC0006EE876E08EE693E00E94F912E2E0F4E030
:102AD00021E834E08081806181932E173F07D1F790
:102AE00040EC242E42E0342EC12CD12C7601C3942C
:102AF00004E010E04601F1E08F1A9108388E2F8A29
:102B0000260137013EE0A32EB12C90E080E029E0C1
:102B10008216910411F486E090E0F801E81BF90BAD
:102B2000F0938307E0938207B0928507A092840711
:102B30006CE876E08EE693E00E94F9124AE0C30169
:102B4000B2010E948E1369E876E08EE693E00E945F
:102B5000F912EF89F88D61917191F88FEF8B90E008
:102B600080E04AE00E948E13FFEF8F1A9F0A26E052
:102B7000A20EB11C3FEF431A530A630A730A8CE298
:102B8000A816B10411F6045C1F4F95E0C90ED11CC4
:102B9000E11CF11CEAE02E0E311C0C37110509F086
:102BA000A9CFE2E0F6E021E836E080818061819300
:102BB0002E173F07D1F700E110E010938307009331
:102BC000820780E390E090938507809384076DE708
:102BD00076E08EE693E00E94F9126091BE02709159
:102BE000BF0290E080E04AE00E948E1310938307BA
:102BF0000093820786E390E0909385078093840793
:102C000061E776E08EE693E00E94F9126091BA02E5
:102C10007091BB028091BC029091BD0220E13EE028
:102C200040E050E00E941B27CA01B9014AE00E941F
:102C30008E136091BA027091BB028091BC02909198
:102C4000BD022CE3C22ED12CE12CF12CA701960160
:102C50000E941B27CA01B901A70196010E941B27E8
:102C60009F938F937F936F938FE491E09F938F93C4
:102C70008E010F5F1F4F1F930F930E94AA29B80167
:102C80008EE693E00E9484130FB6F894DEBF0FBE69
:102C9000CDBF03CE81E6E82E86E0F82E08E010E0F6
:102CA000F701659174916115710501F1CE010196ED
:102CB0000E94982666E170E0CE0101960E949F2650
:102CC000382F2DEF2303C0011124805C9F4F909378
:102CD0008307809382071093850700938407BE01C2
:102CE0006F5F7F4F8EE693E00E94841332E0E30E25
:102CF000F11C0A5F1F4F0833110591F6CECD2F92BC
:102D00003F925F926F927F928F929F92AF92BF920B
:102D1000CF92DF92EF92FF920F931F93CF93DF93A7
:102D2000CDB7DEB72E970FB6F894DEBF0FBECDBF7E
:102D30000E94520A8091B2029091B30281FB222438
:102D400020F8312C813D934014F4312C212C6091DA
:102D5000B0027091B102C101860F971F9A838983D7
:102D60008090AE029090AF02820C931C10E000E0C5
:102D7000F2E16F2E712C877099279E838D83919538
:102D8000819591099C01277033273A8729878827E5
:102D90009927881999099C012770332738872F8331
:102DA000C9019195819591099C01277033273C8732
:102DB0002B87E091AD02E00FF12FF11DCF010896B6
:102DC00060E970E00E9477296C017C0173E0F59462
:102DD000E7947A95E1F75C0137E0A322BB24E77022
:102DE000FF27E35CFB4F5490C701880F991F9C831A
:102DF0008B83FC01E757FD4F9081292F30E03E8700
:102E00002D87A114B10409F062C0C7014196B30136
:102E10000E947729FC01EE0FFF1FE757FD4F8081CD
:102E2000A901481B51094F5F5F4F2D853E85898160
:102E30009A81280F391F3E872D8737FD5FC01416F2
:102E4000150614F041E050E02D853E852417350726
:102E50000CF4A9018D859E85841B950B9E878D871B
:102E6000BC01C8010E945708452D098401C0469540
:102E70000A94EAF7852D0D8001C0880F0A94EAF7BD
:102E8000482BF801EE57FC4F28E030E08D859E85F9
:102E9000281B390B8D859E85181619067CF5089719
:102EA0005CF58FEF90E0022E02C0959587950A940D
:102EB000E2F784239081892B8083E058FF4F8D8532
:102EC0009E8508979E878D87285F3F4FE3CF41E01F
:102ED00050E087E0A816B10409F0A7CFC7014396D8
:102EE000B3010E947729FC01EE0FFF1FE757FD4F4A
:102EF00080814D855E8595CF8FEFDBCFEB81FC81A7
:102F0000E757FD4F218130E0C7014196A114B1047C
:102F100039F087E0A816B10409F063C0C7014396F1
:102F2000B3010E947729FC01EE0FFF1FE757FD4F09
:102F30009181892F90E0821B930B01969C838B8358
:102F400090E4E92EF12CE21AF30AE818F908F7FCEC
:102F50004BC02B813C811216130624F081E090E0D7
:102F60009C838B832B813C81E216F30614F4FC8254
:102F7000EB8260E470E06E197F094B81C8010E940A
:102F800057088B819C81E81AF90A852D0F8001C0B2
:102F900086950A94EAF70B8401C0550C0A94EAF767
:102FA000582AD801AE5FB84F28E030E02E193F090B
:102FB0001E141F04CCF48FEF98E0E916F1042CF4F2
:102FC000022E01C0880F0A94EAF785219C91892B73
:102FD0008C93A058B10988E0E81AF108285F3F4FA8
:102FE000E7CF81E090E0AACFF601EE0FFF1FE7598F
:102FF000FE4F40814423A9F0449FA0011124B6E074
:1030000055954795BA95E1F78181480F511D87FD88
:103010005A95420D531D21E0B8018EE693E00E94BF
:10302000F80F0F5F1F4F0038110509F0C2CEE09175
:103030006801F0E0EE0FFF1FE757FD4F81812091FF
:10304000670140916601608170E090916501911186
:1030500096C024039001112437FF02C0295F3F4F1F
:10306000F3E035952795FA95E1F7820F932F911D9F
:103070000897880D991D29813A81620F731F68177F
:1030800079070CF4BC016933710514F068E370E052
:103090008091640134E0839FC00111244695480F5C
:1030A000592F511DE3E0440F551FEA95E1F74954AC
:1030B0005D4F80916301EE24E39408E028E090E006
:1030C0000E943109809162018823B9F08C3008F0A8
:1030D00059C086958650990B1092830710928207EB
:1030E00090938507809384076091600170916101DE
:1030F00090E080E04AE00E948E1380915F01882377
:1031000009F443C080915D0190915E019A838983A7
:10311000499724F028E130E03A83298389819A8114
:1031200040979A83898300E020E140E4BC0180E27B
:1031300090E00E94BB08EE24E39400E120E44DEB14
:1031400053E069817A8180E290E00E9431092E96F5
:103150000FB6F894DEBF0FBECDBFDF91CF911F91A8
:103160000F91FF90EF90DF90CF90BF90AF909F9026
:103170008F907F906F905F903F902F900895680D93
:10318000791D86CF90E080E0A7CF809165018823EC
:10319000F1F220915D0130915E013A83298380ED47
:1031A00091E06C01C21AD30A1C141D0414F4D12C32
:1031B000C12C00E020E148E5B60184E190E00E94E6
:1031C000BB08EE24E39400E128E54DE053E0B601AE
:1031D00084E190E00E94310989819A81803C91408C
:1031E00024F480EC91E09A83898380915C0190E0E3
:1031F0009C012E5F3F4F220F220F220F33E0880FDA
:10320000991F3A95E1F7E980FA8030E9E31A31E055
:10321000F30AB701681B790B00E048E48CE190E009
:103220000E94BB084091600150916101B7018AE59D
:1032300090E00E9473110EE110E010938307009359
:10324000820789819A818D58914090938507809358
:10325000840768E073E08EE693E00E94F912109311
:1032600083070093820789819A81875891409093C0
:1032700085078093840762E073E08EE693E00E9406
:10328000F91280915C01882309F461CF8091B20228
:103290009091B30268E070E00E94772904970CF0E7
:1032A00056CF82E290E090938307809382078981D2
:1032B0009A8186599140909385078093840767EFA0
:1032C00072E08EE693E02E960FB6F894DEBF0FBE46
:1032D000CDBFDF91CF911F910F91FF90EF90DF90C5
:1032E000CF90BF90AF909F908F907F906F905F90A6
:1032F0003F902F900C94F9120F931F93CF93DF936D
:103300001092D80281E08093D902C0911D03CC2392
:1033100009F471C00E94EA0FC093D4021092D50242
:103320008091B50281114BC080E093E09093DB0265
:103330008093DA020E94FD136F3472448E449140F0
:1033400009F05CC0C3E0D0E00BEE14E40E9410145E
:103350009C01C29FC001C39F900DD29F900D11246C
:10336000080F191F2196C031D10581F70E94101452
:103370000817190709F042C084E093E09093DB023C
:103380008093DA02C0ECD2E00E94101489939993E2
:1033900032E0C43DD307C1F70E9410149093BF02DE
:1033A0008093BE020E94FD136093BA027093BB0229
:1033B0008093BC029093BD0282E08093B5020E948C
:1033C000DB2564E670E00E9477298A568093B90273
:1033D00081E08093B8021092B7020E94DB2564EB73
:1033E00070E00E947729845C8093B602DF91CF91D0
:1033F0001F910F9108950E94DD0F8ECFE0ECF2E057
:1034000084ED92E0119211928E179F07D9F71092D6
:10341000BF021092BE021092BA021092BB0210922A
:10342000BC021092BD0281E0C8CFAF92BF92CF9292
:10343000DF92EF92FF920F931F93CF93DF937C0164
:10344000B62E8A01FA01C1808081C81ADD080E9467
:10345000DB2563E070E00E947729EC01BB2031F0AE
:1034600088E090E09C012C1B3D0BE901F801818173
:103470008252990B65E070E00E9477295B010E94FF
:10348000DB25FE01EC19FD099F01F7FF04C022278F
:1034900033272E1B3F0B61E170E0621B730B95011C
:1034A000B7FE04C0222733272A193B09621B730B7E
:1034B0000E9477299C0128503109CC16DD0614F4AE
:1034C0002E0F3F1FB7FE02C02A193B09F801818168
:1034D000820F932F911D8031910514F480E190E0CB
:1034E0008933910514F088E390E0982F9C1BF70135
:1034F00090838183DF91CF911F910F91FF90EF9087
:10350000DF90CF90BF90AF9008950F931F93CF930C
:10351000DF9381E080935F011092650188E790E07E
:1035200090935E0180935D011092610110926001A1
:10353000109262011092AD021092B3021092B20288
:1035400010925601109258011092570180E2809318
:103550005B01E9E8F2E090E288E2908381833296B1
:1035600022E0EB39F207C9F7D0E0C0E08E01075640
:103570001D4F809156019FEF980F9093560160E088
:1035800087FF19C00E94DB259C01990F440B550B46
:1035900030584F4F5F4FA0916001B09161010E9480
:1035A000082726E195958795779567952A95D1F710
:1035B0006093560161E0A801CE0185569D4F0E949F
:1035C000151A2296C231D10589F6E9E6F1E010829A
:1035D000329682E0E938F807D1F71092630181E072
:1035E00080936801809364011092660110926701D4
:1035F00060E087E492E0DF91CF911F910F910C94EE
:10360000AB0FCF92DF92EF92FF92CF938091D802CF
:103610008111C3C08091B9029FEF980F9093B902B6
:10362000811109C00E94DB2564E670E00E947729C1
:103630008A568093B9028091B7029091B60288238E
:1036400041F090FF06C03091B80221E0231B209387
:10365000B8022FEF290F2093B60291110DC091E00F
:1036600089278093B7020E94DB2564EB70E00E94FB
:103670007729845C8093B60280918A0790E08095D8
:10368000909520918B07207830E082239323892B1B
:1036900079F08091D5028823B1F181508093D502D1
:1036A0006FEF86E396E00E94AB0F81E08093D90232
:1036B00080918A0790E08095909520918B072071EA
:1036C00030E082239323892B79F08091D5028330D7
:1036D000E1F08F5F8093D5026FEF86E396E00E9462
:1036E000AB0F81E08093D90280918A0790E08095AA
:1036F000909520918B072C7030E082239323892BA7
:1037000039F4C0E01EC083E0C9CF1092D502E4CFE7
:103710008091D502813079F124F4882341F0C0E012
:103720000DC08230B1F18330D1F782E033C06091B7
:103730001D0382E090E00E94BE26C1E081E08093FC
:10374000D9020E94DB256C01990FEE08FF080E9448
:10375000770DC616D706E806F90631F06C257D25EB
:103760008E259F250E9486268C2FCF91FF90EF906B
:10377000DF90CF900895C091D402C82739F00E94FD
:10378000EA0FC093D4020E943511C9CF0E94DD0F09
:10379000F8CF81E08093D802F6CF80918A0790E03D
:1037A0008095909520918B072C7030E08223932395
:1037B000892B09F4A6CF1092D8020E94351181E01E
:1037C0008093D9029ECFBF92CF92DF92EF92FF9269
:1037D0000F931F93CF93DF93B090650180915F01AA
:1037E000811103C0BB2009F40BC380915D0190914E
:1037F0005E01019790935E0180935D01892B11F426
:1038000010925F0110915F0111110FC08091B202FF
:103810009091B30202968B19910960E074E00E94C6
:1038200077299093B3028093B202E090B202F090B5
:10383000B30220EDE21623E0F20629F462E08EEAFC
:1038400092E00E94AB0FB701FF0C880B990B0E940E
:10385000F6272BED3FE049E450E40E94C12820E028
:1038600030E040E05BE30E94C1280E94B92720E0DD
:1038700030E040E05FE30E94C1289B01AC0160E0C2
:1038800070E080E09FE30E944C276B017C01609117
:103890005B0170E090E080E00E94F6279B01AC01A4
:1038A000C701B6010E94C1280E94BE276B019B017F
:1038B00070935A0160935901CB018095909597FDC3
:1038C0000196959587959093B1028093B002C601B9
:1038D00037FD0196959587959093AF028093AE0240
:1038E000BB2029F180918B078C7090E020918A0792
:1038F00030E02095309582239323892B11F00E948C
:10390000851A80916601882309F4BCC08150809398
:10391000660180916401880F90916301890F9FEF88
:10392000980F993308F06EC190936301ABC08091FA
:1039300066018111EBCF111108C090918B07892F7F
:10394000807296FF95C081119DC081E080936401D3
:1039500001E010E02091680130E0C901800F911F63
:10396000429662E170E00E947729DC01AA0FBB1F3A
:10397000A757BD4F11965C911197220F331FF90184
:10398000E757FD4F418120813C91E42FE31BFF0B62
:10399000BF01E52FE21BFF0B9F016E177F070CF4A1
:1039A0009B01C20ED31EF8E0CF16D1040CF46AC0FE
:1039B000451B409367018093680188E0809366010E
:1039C00080916301080F111D093311050CF446C0E5
:1039D0000091AD0206950695069510E0C801419646
:1039E00062E170E00E947729880F991F9C01275798
:1039F0003D4F7901809156019FEF980F90935601AA
:103A000087FF1AC00E94DB259C01990F440B550BC0
:103A100030584F4F5F4FA0916001B09161010E94FB
:103A2000082726E195958795779567952A95D1F78B
:103A300060935601BB24B394C801880F991FA70156
:103A40006B2D87579D4F0E94151A809160019091B0
:103A500061010196909361018093600180915F0103
:103A600081114FCF63E080EA92E00E94AB0F49CF13
:103A7000882341F010926401809163010FEF1FEFE2
:103A8000811168CF2091AE023091AF02E9E6F1E0FA
:103A900010E000E0C80187709927892B79F4D801DC
:103AA000C3E0B595A795CA95E1F7AA0FBB1FA75725
:103AB000BD4F1196CC91C20FD32FD11D8081882389
:103AC00099F08F5F8083889FC0011124A6E09595AF
:103AD0008795AA95E1F74181840F911D47FD9A953D
:103AE000C817D9070CF410820F5F1F4F32960039A8
:103AF000110581F680915F01811155C10E94DB257E
:103B00006091B2027091B302E6E075956795EA950F
:103B1000E1F76F5F7F4F0E947729892B09F50E949B
:103B2000DB25B8010E947729DC01AA0FBB1FA7592A
:103B3000BE4F2C91211114C021E02C9397FD0796C4
:103B4000FC0133E0F595E7953A95E1F7EE0FFF1F9D
:103B5000E757FD4F80819091B002890F11968C93A9
:103B600080915F0181111FC18091B2029091B302D7
:103B7000892B09F018C18091570190915801019645
:103B8000909358018093570120915B012F3F19F0CA
:103B90002F5F20935B01E0916801F0E0EE0FFF1FC3
:103BA000E757FD4F21813081231B330B2430310532
:103BB0000CF0F9C021E020936501982F8827990F18
:103BC000092E000CAA0BBB0B4091600150916101C2
:103BD0005093D7024093D6022AE030E0E9019E01DB
:103BE00021503109F901EE0FFF1FE054FD4F6081B4
:103BF000718164177507A0F429303105B1F4C9E06B
:103C0000D0E0EDCF8250809363018091AD0290E0CF
:103C1000019660E970E00E9477298093AD0232CF6F
:103C2000CA30D10599F09E0109C0CC0FDD1FC054E8
:103C3000DD4F798368832115310581F6F901EE0F97
:103C4000FF1FE054FD4F51834083E9012091BE02E4
:103C50003091BF022F5F3F4F3093BF022093BE02CF
:103C60004091BA025091BB026091BC027091BD02BA
:103C7000840F951FA61FB71F8093BA029093BB02B3
:103C8000A093BC02B093BD028091B502813061F473
:103C900080E093E09093DB028093DA026FE472E4B9
:103CA0008EE491E00E94D613CE018E579E4F880F6E
:103CB000991F9093DB028093DA028E01000F111F8F
:103CC00000541D4F40ECE42E42E0F42E54EDC52E7E
:103CD00052E0D52EC016D10639F0F80181919191AC
:103CE0008F010E94EA13F6CF8091BE029091BF022D
:103CF0000E94EA136091BA027091BB028091BC02EB
:103D00009091BD020E94D61323E030E04BEE54E4C4
:103D1000F701619171917F01629FC001639F900DD6
:103D2000729F900D1124480F591F2F5F3F4F2D3068
:103D3000310571F7C090BA02D090BB02E090BC028E
:103D4000F090BD028091BE029091BF026DE0689F2D
:103D50009001699F300D11246EE06C9DC0016D9D36
:103D6000900D1124280F391F6FE06E9DC0016F9DCB
:103D7000900D1124820F931F840F951F0E94EA1348
:103D800082E08093B50281E0C11180E080935C0104
:103D900080EE91E090935E0180935D0161E089E6A1
:103DA00092E00E94AB0F8091650190916201209199
:103DB00063012033A8F020915F01211111C081110E
:103DC00021C0903218F49F5F90936201DF91CF91F0
:103DD0001F910F91FF90EF90DF90CF90BF900895CB
:103DE000992319F0915090936201882379F381E02F
:103DF00020915D0130915E01232B41F380E0E6CFFD
:103E000010E004CD992399F3EDCF1F920F920FB6D6
:103E10000F9211248F939F938091E1009091E10084
:103E2000937F9093E10083FF0FC01092E90091E02F
:103E30009093EB001092EC0092E39093ED001092BF
:103E4000160398E09093F00082FF22C093E09093D5
:103E5000E9009091F200992319F09AE39093E80019
:103E600090910703992341F090910703915090930B
:103E70000703911101C05D9A90911503992341F0B8
:103E800090911503915090931503911101C0289AB8
:103E900084FF18C08091E2008E7E81608093E200F2
:103EA0008091E1008F7E8093E100809108038E7EF7
:103EB0008061809308039F918F910F900FBE0F90A8
:103EC0001F90189580FFF7CF8091E2008E7E806171
:103ED0008093E2008091E1008E7E8093E1008091EA
:103EE00008038E7E8160E5CF1F920F920FB60F926E
:103EF0001124CF92DF92EF92FF920F931F932F9393
:103F00003F934F935F936F937F938F939F93AF9361
:103F1000BF93EF93FF93CF93DF93CDB7DEB76C974B
:103F2000DEBFCDBF1092E9008091E80083FF25C07D
:103F300068E0CE0145960E94E90B82EF8093E8008D
:103F40008D8987FF39C09091E80090FFFCCF982FB2
:103F5000907609F034C19E894F89588D2F89F88C4D
:103F6000911131C0803861F5809106038093F10092
:103F70001092F1008EEF8093E8006C960FB6F894E3
:103F8000DEBF0FBECDBFDF91CF91FF91EF91BF910B
:103F9000AF919F918F917F916F915F914F913F91E1
:103FA0002F911F910F91FF90EF90DF90CF900F9086
:103FB0000FBE0F901F9018959EEF9093E800C7CF0B
:103FC0001092F100D5CF913059F48111D3CF413007
:103FD000510581F6809106038D7F80930603CACF39
:103FE000933049F48111C6CF4130510519F68091C3
:103FF00006038260F2CF953041F48091E80080FFA3
:10400000FCCF20682093E300B5CF963009F0A9C01B
:104010000B8D1C8D22E01092E90010920403109287
:104020000303F2122EC010920203109201030E94A9
:10403000B80B1F8299E09983FA8291E09E8390EAFF
:1040400098879AEF99872091030330910403275FA3
:104050003F4F3C832B838D831092E9001092040321
:1040600010920303109302030093010349E050E010
:10407000BE016F5F7F4F80E00E94920B0E94B80BE1
:1040800079CF10930203009301030E949C0ADC0184
:1040900012960D911C910115110509F451C1D80119
:1040A000ED91FC910480F581E02DBE016B5E7F4FA8
:1040B000C8010995009709F03EC1F80100851185F6
:1040C000EACFF3E0FF120EC08F89882309F440C0C5
:1040D000823061F440E860E187E490E10E945F0B88
:1040E000811148CF81E28093EB0047CF813029F4E2
:1040F00040E86BE08BE390E1F1CF833099F70E94C9
:104100009C0ADC011296ED90FC908E010F5F1F4F10
:104110006801E114F10479F0D701ED91FC9106807A
:10412000F781E02DB801C7010995080F111DF701AE
:10413000E084F184EECFD8011C92F60101900020BA
:10414000E9F73197BF016C197D0940E0C601C6CF80
:1041500065E270E1FB01449150E080E80E94920B1F
:1041600009CF973009F4BECF983021F481E08093D5
:10417000F10000CF993009F0FDCE837009F0B2CF85
:10418000E7E2F1E081E031E096E32191222371F052
:104190008093E9003093EB00DF0111972C9120937D
:1041A000EC009093ED008F5F873079F78EE7809376
:1041B000EA001092EA008F8980931603DBCE8B8D84
:1041C0009C8D1092E90010920403109203039093C7
:1041D000020380930103898D811192C08E899D898C
:1041E000913A49F4813209F07DCF47E050E064E034
:1041F00071E080E0B3CF913209F074CF833269F47B
:104200008F89988DB0E0A0E0809300019093010128
:10421000A0930201B0930301ADCE803269F4809186
:10422000E80082FFFCCF67E084E091E00E94E90BA8
:104230008BEF8093E8009ECE823209F09BCE8F896F
:1042400080930B01EEEFFFE7859194918B3F9C4D9E
:1042500051F1E0E0F8E08091040190910501A09116
:104260000601B0910701803B9440A105B105F1F42E
:1042700080910B0180FD1AC0EE3F8AE0F80789F5B6
:1042800087E797E79183808380916000809305039F
:1042900088E19BE00FB6F894A895809360000FBE6C
:1042A0009093600067CEEEEFFAE0D5CF80819181E8
:1042B0008737974709F05ECEA895809160008861A6
:1042C000809360008091050380936000EE3F2AE0B8
:1042D000F20789F08091FE0A9091FF0A9183808312
:1042E00049CE808191818737980751F29093FF0AD8
:1042F0008093FE0AC5CF1092FF0A1092FE0A3ACEB2
:104300000E949C0ADC0112960D911C910115110569
:1043100009F4E8CED801ED91FC910190F081E02DF7
:10432000BE016B5E7F4FC8010995811123CEF80154
:1043300000851185EBCF181619060CF41BCED2CED2
:10434000F1E0FF12BECE69E270E104CF1F920F923E
:104350000FB60F9211242F933F938F939F93AF9398
:10436000BF938091FB029091FC02A091FD02B0915D
:10437000FE023091E80223E0230F2D3758F5019615
:10438000A11DB11D2093E8028093FB029093FC02D3
:10439000A093FD02B093FE028091E9029091EA029F
:1043A000A091EB02B091EC020196A11DB11D80938A
:1043B000E9029093EA02A093EB02B093EC02BF9162
:1043C000AF919F918F913F912F910F900FBE0F90C2
:1043D0001F90189526E8230F0296A11DB11DD2CF7C
:1043E0001F920F920FB60F9211242F933F934F936A
:1043F0005F936F937F938F939F93AF93BF93EF934D
:10440000FF938091E502882349F08091ED02E091CD
:10441000EE02F091EF02908189278083809118034A
:10442000882329F18091E1029091E202A091E302B8
:10443000B091E402892B8A2B8B2BC9F08091E10289
:104440009091E202A091E302B091E4020197A109E8
:10445000B1098093E1029093E202A093E302B0934A
:10446000E402892B8A2B8B2B11F40E94380FFF91C9
:10447000EF91BF91AF919F918F917F916F915F91DC
:104480004F913F912F910F900FBE0F901F90189555
:104490001F920F920FB60F9211248F939F93AF9399
:1044A000BF93EF93FF938091E002882309F452C0F9
:1044B0008091DC029091DD02A091DE02B091DF02DA
:1044C000892B8A2B8B2BA1F19091F002E091F102C4
:1044D000F091F2028081892780838091DC029091A3
:1044E000DD02A091DE02B091DF02181619061A064D
:1044F0001B069CF48091DC029091DD02A091DE020B
:10450000B091DF020197A109B1098093DC02909379
:10451000DD02A093DE02B093DF02FF91EF91BF9125
:10452000AF919F918F910F900FBE0F901F90189594
:104530001092E00280916F008D7F80936F008091D8
:10454000F002E091F102F091F202908180958923CE
:104550008083E3CF9091F002E091F102F091F202BA
:1045600080818927F5CFEEE1F3E01382128288EE95
:1045700093E0A0E0B0E084839583A683B78381E3D2
:1045800091E0918380838FEF9FEF95878487EEE69C
:10459000F3E0138212828CE3868380E181871086A8
:1045A000178216861786108A118A128A109283073C
:1045B00010928207109285071092840781E0809301
:1045C000860723E431E031832083809388071092AB
:1045D00089070895789484B5826084BD84B581602C
:1045E00084BD85B5826085BD85B5816085BD8091BE
:1045F0006E00816080936E00109281008091810036
:10460000826080938100809181008160809381002D
:104610008091800081608093800080919100826011
:1046200080939100809191008160809391008091AE
:1046300090008160809390008091C100846080939D
:10464000C1008091C10082608093C1008091C1004F
:1046500081608093C1008091C30081608093C3001A
:104660008091C00082608093C0008091C200816010
:104670008093C20080917A00846080937A00809158
:104680007A00826080937A0080917A0081608093C2
:104690007A0080917A00806880937A0010921603E5
:1046A00010920603109208038091D70081608093D6
:1046B000D70080EA8093D80089B5806189BD89B52B
:1046C000826089BD09B400FEFDCF61E070E080E04A
:1046D00090E00E949C0D8091D8008F7C8061809337
:1046E000D8008091E000807F8093E0008091E1001D
:1046F0008E7E8093E1008DE08093E200559A209AAF
:10470000CFB7F8948091F302811127C0E2ECFFE06B
:104710008491E5E9FFE09491E82FF0E0EE0FFF1FB0
:10472000E759F04FA591B491EC91E92321F461E0B0
:1047300081E10E94270C61E081E10E94980C8CB518
:1047400080618CBD8CB580648CBD61E08FE00E947F
:10475000980C61E080E10E94980C8091F3028F5FD9
:104760008093F302CFBFC0EDDFE0BE01FE01849174
:104770006F5F7F4F2296FB016491882319F00E949E
:10478000980CF3CF61E086E00E94270C61E070E0B6
:1047900080E090E00E949C0D60E086E00E94270C83
:1047A0006AE070E080E090E00E949C0D61E086E0AD
:1047B0000E94270CEDEBFFE0E491F0E0EE0FFF1F0D
:1047C000ED55F04F859194919093F9028093F80202
:1047D000E0E9FFE0E491E093F702E5EBFFE0E4912C
:1047E000F0E0EE0FFF1FED55F04F859194919093FF
:1047F000F6028093F502E8E8FFE0E491E093F4022A
:104800008CB58C7F8CBD8DB581608DBD0E94780E7E
:10481000E7E7FFE084E89FE08E179F0749F02491C7
:104820002EBD00000DB407FEFDCF2EB53196F4CF9E
:104830000E94900E8091640081608093640080915A
:10484000640082608093640080916400806880933B
:1048500064008091640080648093640080916500AE
:104860008160809365000E94530E87FF22C00E94E2
:10487000780E85EA8EBD00000DB407FEFDCF8EB523
:104880000E94900E70E060E08AE00E94D40C70E01C
:1048900060E08BE00E94D40C70E060E089E00E9450
:1048A000D40C809164008062809364000E946D0E3D
:1048B000FDCF80911703823091F0E82FF0E0E959A5
:1048C000F04FC4918F5F8093170361E085E00E94F1
:1048D000980CC13009F45CC0C33009F47BC061E0BE
:1048E0008DE00E94980C82E090E00E94AA26882326
:1048F00009F49DC080916500877F8093650081E009
:1049000080931D038CE38093740380E1809377038D
:1049100088E78093FA0216E0C0E0D0E001E02FB70C
:10492000F8948091FB029091FC02A091FD02B0915D
:10493000FE022FBF20918003222391F02091780363
:10494000F82FF21BF09381032091750330917603C9
:104950002F5F3F4F309376032093750310928003AF
:1049600040917C0350917D0360917E0370917F03A1
:1049700084179507A607B7070CF061C0481B4230A3
:1049800010F00E946D0E209751F20E940000C7CFD8
:104990001092800010928100809181008860809345
:1049A000810080918100816080938100E6EBFFE0CF
:1049B000E491F0E0EE0FFF1FED55F04F85919491DB
:1049C0009093F2028093F102E9E8FFE0E491E09332
:1049D000F00285CF1092900010929100809191008A
:1049E0008860809391008091910081608093910014
:1049F000E6EBFFE0E491F0E0EE0FFF1FED55F04F26
:104A0000859194919093EF028093EE02E9E8FFE0A4
:104A1000E491E093ED0280911703882321F06CE389
:104A200080E00E94A40E80E00E94150F58CF1092E3
:104A30001D038091650088608093650063CF20919D
:104A40007703AC01BD01420F511D611D711D4093E3
:104A50007C0350937D0360937E0370937F03809368
:104A6000780390937903A0937A03B0937B03009328
:104A7000800380918B0780938A070E94530E809356
:104A80008B078091FF0290910003189FF001199FFE
:104A9000F00D1124EC5EFE4F0280F381E02D0995AC
:104AA000F82E8091FF0290910003189FF001199F4A
:104AB000F00D1124EC5EFE4F0480F581E02D099588
:104AC000809182038EBDE3E8F3E081910DB407FE8F
:104AD000FDCF8EBD37E0E238F307B9F70DB407FE1E
:104AE000FDCFFF2009F44FCF8091FF02909100038A
:104AF000019791F081E090E0909300038093FF0292
:104B0000189FF001199FF00D1124EC5EFE4F0190EB
:104B1000F081E02D099537CF82E090E0EDCF8F92C4
:104B20009F92AF92BF92CF92DF92EF92FF92CF937C
:104B3000DF93EC01688179818A819B816115710520
:104B40008105910521F464E279ED8BE597E02DE193
:104B500033EF41E050E00E94E92649015A019B01F0
:104B6000AC01A7EAB1E40E9408276B017C01ACEE1E
:104B7000B4EFA50194010E941627DC01CB018C0D36
:104B80009D1DAE1DBF1DB7FF03C00197A109B04811
:104B900088839983AA83BB839F77DF91CF91FF900E
:104BA000EF90DF90CF90BF90AF909F908F9008953F
:104BB0000E948F2508958CE091E00E948F25089532
:104BC000B0E0A0E080930C0190930D01A0930E0142
:104BD000B0930F0108958F929F92AF92BF92CF92A0
:104BE000DF92EF92FF92CF93DF93EC01688179819E
:104BF0008A819B81611571058105910521F464E22B
:104C000079ED8BE597E02DE133EF41E050E00E9434
:104C1000E92649015A019B01AC01A7EAB1E40E94CF
:104C200008276B017C01ACEEB4EFA50194010E9452
:104C30001627C60ED71EE81EF91EF7FE06C081E035
:104C4000C81AD108E10880E8F80AC882D982EA8245
:104C5000FB82C701B6019F77DF91CF91FF90EF9064
:104C6000DF90CF90BF90AF909F908F9008958F92DC
:104C70009F92AF92BF92CF92DF92EF92FF9260919C
:104C80001001709111018091120190911301611531
:104C900071058105910521F464E279ED8BE597E0DA
:104CA0002DE133EF41E050E00E94E92649015A012D
:104CB0009B01AC01A7EAB1E40E9408276B017C01CB
:104CC000ACEEB4EFA50194010E941627C60ED71EC4
:104CD000E81EF91EF7FE06C081E0C81AD108E108F7
:104CE00080E8F80AC0921001D0921101E0921201FE
:104CF000F0921301C701B6019F77FF90EF90DF900C
:104D0000CF90BF90AF909F908F90089560931001C7
:104D10007093110180931201909313010895FB0188
:104D2000DC0102C005900D9241505040D8F7089523
:104D3000FB01DC0105900D920020E1F70895FC01D4
:104D40006150704001900110D8F7809590958E0FBA
:104D50009F1F0895F999FECF92BD81BDF89A9927BA
:104D600080B50895A6E1B0E044E050E00C94DB2665
:104D7000A8E1B0E042E050E00C94DB26262FF99940
:104D8000FECF1FBA92BD81BD20BD0FB6F894FA9A2E
:104D9000F99A0FBE01960895242F0E94BF26252F51
:104DA0000E94BF260C94D4260E94BE26272F0C9466
:104DB000BF26DC01CB01FC01F999FECF06C0F2BD94
:104DC000E1BDF89A319600B40D9241505040B8F7C9
:104DD0000895052E97FB1EF400940E94002757FDAE
:104DE00007D00E941B2707FC03D04EF40C94002729
:104DF00050954095309521953F4F4F4F5F4F089507
:104E000090958095709561957F4F8F4F9F4F089536
:104E10000E943D27A59F900DB49F900DA49F800DEB
:104E2000911D11240895B7FF0C9408270E940827AC
:104E3000821B930B0895A1E21A2EAA1BBB1BFD0136
:104E40000DC0AA1FBB1FEE1FFF1FA217B307E40769
:104E5000F50720F0A21BB30BE40BF50B661F771FC1
:104E6000881F991F1A9469F76095709580959095A1
:104E70009B01AC01BD01CF010895A29FB001B39F7A
:104E8000C001A39F700D811D1124911DB29F700D53
:104E9000811D1124911D08955058BB27AA270E94F7
:104EA00064270C9473280E943A2838F00E94412805
:104EB00020F039F49F3F19F426F40C9437280EF4AF
:104EC000E095E7FB0C943128E92F0E94982858F3CD
:104ED000BA17620773078407950720F079F4A6F5DF
:104EE0000C94BA280EF4E0950B2EBA2FA02D0B01CE
:104EF000B90190010C01CA01A0011124FF27591B1F
:104F000099F0593F50F4503E68F11A16F040A22F24
:104F1000232F342F4427585FF3CF46953795279595
:104F2000A795F0405395C9F77EF41F16BA0B620B94
:104F3000730B840BBAF09150A1F0FF0FBB1F661FDB
:104F4000771F881FC2F70EC0BA0F621F731F841F1E
:104F500048F4879577956795B795F7959E3F08F044
:104F6000B0CF9395880F08F09927EE0F9795879506
:104F700008950E944A28E3950C9484280E94C5272E
:104F80006894B1110C94BB2808950E94A02888F061
:104F90009F5798F0B92F9927B751B0F0E1F0660FFD
:104FA000771F881F991F1AF0BA95C9F714C0B1303E
:104FB00091F00E94BA28B1E008950C94BA28672FA6
:104FC000782F8827B85F39F0B93FCCF3869577956D
:104FD0006795B395D9F73EF4909580957095619556
:104FE0007F4F8F4F9F4F0895E89409C097FB3EF481
:104FF00090958095709561957F4F8F4F9F4F992326
:10500000A9F0F92F96E9BB279395F69587957795A3
:105010006795B795F111F8CFFAF4BB0F11F460FF63
:105020001BC06F5F7F4F8F4F9F4F16C0882311F0BB
:1050300096E911C0772321F09EE8872F762F05C0CF
:10504000662371F096E8862F70E060E02AF09A956A
:10505000660F771F881FDAF7880F9695879597F95F
:10506000089597F99F6780E870E060E008959FEFEA
:1050700080EC089500240A941616170618060906EF
:10508000089500240A9412161306140605060895BE
:105090000C9437280E94A028D8F3E894E0E0BB27BE
:1050A0009F57F0F02AED3FE049EC06C0EE0FBB0F32
:1050B000661F771F881F28F0B23A620773078407BC
:1050C00028F0B25A620B730B840BE3959A9572F732
:1050D000803830F49A95BB0F661F771F881FD2F770
:1050E00090480C943029092E0394000C11F4882365
:1050F00052F0BB0F40F4BF2B11F460FF04C06F5F90
:105100007F4F8F4F9F4F0895EF93E0FF07C0A2EAB4
:105110002AED3FE049EC5FEB0E9464270E94732870
:105120000F90039401FC9058ECEAF0E00C943C29B9
:1051300057FD9058440F551F59F05F3F71F0479548
:10514000880F97FB991F61F09F3F79F0879508952D
:10515000121613061406551FF2CF4695F1DF08C04C
:10516000161617061806991FF1CF86957105610569
:1051700008940895E894BB2766277727CB0197F911
:1051800008950E94D4280C9473280E943A2838F07D
:105190000E94412820F0952311F00C9431280C94A2
:1051A000372811240C94BB280E94982870F3959FEF
:1051B000C1F3950F50E0551F629FF001729FBB270E
:1051C000F00DB11D639FAA27F00DB11DAA1F649FAA
:1051D0006627B00DA11D661F829F2227B00DA11D5D
:1051E000621F739FB00DA11D621F839FA00D611DE3
:1051F000221F749F3327A00D611D231F849F600D04
:10520000211D822F762F6A2F11249F5750409AF02C
:10521000F1F088234AF0EE0FFF1FBB1F661F771FB8
:10522000881F91505040A9F79E3F510580F00C9483
:1052300031280C94BB285F3FE4F3983ED4F3869565
:1052400077956795B795F795E7959F5FC1F7FE2B23
:10525000880F911D9695879597F908959F3F31F096
:10526000915020F4879577956795B795880F911D94
:105270009695879597F908959F938F937F936F9352
:10528000FF93EF939B01AC010E94C128EF91FF9126
:105290000E9450292F913F914F915F910C94C1280A
:1052A000DF93CF931F930F93FF92EF92DF927B01D7
:1052B0008C01689406C0DA2EEF010E94D428FE010A
:1052C000E894A5912591359145915591A6F3EF016B
:1052D0000E946427FE019701A801DA9469F7DF9024
:1052E000EF90FF900F911F91CF91DF91089597FB61
:1052F000072E16F4009407D077FD09D00E9491295B
:1053000007FC05D03EF4909581959F4F08957095C8
:1053100061957F4F0895EE0FFF1F0590F491E02DEA
:105320000994AA1BBB1B51E107C0AA1FBB1FA617EC
:10533000B70710F0A61BB70B881F991F5A95A9F73E
:1053400080959095BC01CD01089581E090E0F8949E
:105350000C94772CAEE0B0E0E0EBF9E20C944E2C2C
:105360000D891E8986E08C831A8309838FEF9FE75E
:105370009E838D83AE01475E5F4F6F89788DCE012E
:1053800001960E94CD292F813885020F131FF80145
:1053900010822E96E4E00C946A2CABE0B0E0E3EDD2
:1053A000F9E20C94402C7C013B018A01FC0117823C
:1053B0001682838181FFC8C1CE0101965C01F7018D
:1053C0009381F30193FD859193FF81913F018823A0
:1053D00009F453C1853239F493FD859193FF81918E
:1053E0003F01853229F4B70190E00E94B22BE7CF4C
:1053F000912C212C312CFFE1F31538F08B3211F177
:1054000090F4803209F1833229F137FC3CC020ED61
:10541000280F2A3050F536FE20C08AE0989E200DD5
:105420001124922E06C08D3291F0803371F768946A
:1054300030F8F30193FD859193FF81913F01811134
:10544000DACF21C0689431F8689432F8F2CF6894CA
:1054500033F8EFCF689434F8ECCFEAE02E9E200DBD
:105460001124222E689435F8E4CF8E3229F436FCCC
:1054700004C1689436F8DDCF8C3619F4689437F897
:10548000D8CF8836B1F2982F9F7D95549330E0F0B5
:105490008336A1F18337C1F1833509F063C0280158
:1054A000F2E04F0E511CF801C080D180692D70E0F0
:1054B00036FC02C06FEF7FEFC6010E94A72B4C01A4
:1054C000689437F882010AC00C5F1F4FFFE3F9832D
:1054D00088248394912C6501E89437F833FE2DC01D
:1054E000522C8114910471F5552009F468CFB7014D
:1054F00080E290E00E94B22B5A94F6CFF8018081AE
:1055000089830E5F1F4FE4CF2801F2E04F0E511C3C
:10551000F801C080D180692D70E036FC02C06FEFC9
:105520007FEFC6010E949F264C018201D5CFB701B3
:1055300080E290E00E94B22B2A942814190409F00A
:10554000B0F7CECFF60137FC859137FE81916F0120
:10555000B70190E00E94B22B51105A94F1E08F1ADB
:105560009108BFCF843619F0893609F077C0F80169
:1055700037FE6BC060817181828193810C5F1F4F08
:10558000F32DFF763F2E97FF09C09095809570957B
:1055900061957F4F8F4F9F4F689437F82AE030E036
:1055A000A5010E94E22BC82ECA188C2C432C36FE73
:1055B0000CC0E89440F8C91440F434FE05C032FC35
:1055C00003C0F32DFE7E4F2E892C44FE95C0FE01B4
:1055D000EC0DF11D8081803309F087C0242D297ED8
:1055E000422E842D8870582E43FC95C040FE8FC0FB
:1055F0009C2C821418F42C0C922C981844FE91C008
:10560000B70180E390E00E94B22B42FE09C088E718
:1056100090E041FE02C088E590E0B7010E94B22B05
:10562000C91408F48AC0CA94D12C9FEFC91AD90AA8
:10563000CA0CDB1CF60182916F01B70190E00E9459
:10564000B22BAC14BD04B1F74FCF60817181072E2E
:10565000000C880B990B0E5F1F4F92CFD32CE89450
:10566000D4F82AE030E0853739F1232D297FD22E76
:105670008F3601F148F48835A9F0F70186819781CA
:105680002B96E2E10C945C2C803749F08837A9F71F
:10569000D4FE02C06894D2F820E130E00DC06894D6
:1056A000D4F8F6CF34FE03C0822F8660D82E20E1D6
:1056B00032E002C028E030E0F801D7FE0FC0608180
:1056C0007181828193810C5F1F4FA5010E94E22BA3
:1056D000C82ECA183D2CE89437F867CF60817181D5
:1056E00090E080E00E5F1F4FF0CF42FC02C0839439
:1056F00078CF8394839475CF842D867809F471CF05
:10570000F6CFB70180E290E00E94B22B839482141E
:10571000C0F3512C73CF522C5818821408F46ECF5A
:10572000F8CF842D867809F47BCF8BE241FE80E2AE
:1057300047FC8DE2B70190E071CFB70180E390E0C4
:105740000E94B22B9A946CCF8FEF9FEF99CFFC0100
:105750000590615070400110D8F7809590958E0F9C
:105760009F1F08950F931F93CF93DF93182F092F37
:10577000EB018B8181FD09C01FEF0FEF812F902F6F
:10578000DF91CF911F910F91089582FF14C02E8158
:105790003F818C819D81281739073CF4E881F9818C
:1057A000CF0101969983888310838E819F81019612
:1057B0009F838E83E3CFE885F985812F0995892B17
:1057C000A1F3DACFFA01AA27283051F1203181F173
:1057D000E8946F936E7F6E5F7F4F8F4F9F4FAF4FF9
:1057E000B1E03ED0B4E03CD0670F781F891F9A1F0C
:1057F000A11D680F791F8A1F911DA11D6A0F711DC0
:10580000811D911DA11D20D009F468943F912AE0CB
:10581000269F11243019305D3193DEF6CF010895B3
:10582000462F4770405D4193B3E00FD0C9F7F6CFE4
:10583000462F4F70405D4A3318F0495D31FD4052AC
:10584000419302D0A9F7EACFB4E0A6959795879542
:1058500077956795BA95C9F7009761057105089521
:105860009B01AC010A2E06945795479537952795CD
:10587000BA95C9F7620F731F841F951FA01D089565
:105880002F923F924F925F926F927F928F929F9250
:10589000AF92BF92CF92DF92EF92FF920F931F933E
:1058A000CF93DF93CDB7DEB7CA1BDB0B0FB6F894EF
:1058B000DEBF0FBECDBF09942A88398848885F842F
:1058C0006E847D848C849B84AA84B984C884DF80A0
:1058D000EE80FD800C811B81AA81B981CE0FD11D84
:1058E0000FB6F894DEBF0FBECDBFED010895F8945A
:0258F000FFCFE8
:1058F200FFFFFFFF00E100000000000001000000C8
:1059020001000000F60B3A1118137C19011B231435
:10591200851AE31B7F1600C1808100000000000091
:1059220000B00ACE0DD10AC60A170BD50AF30A0037
:10593200000000A811FA0B8113801325356400279B
:0659420025303264220052
:00000001FF
