:100000000C94BB050C94E3050C94E3050C94E305F8
:100010000C94E3050C94E3050C94E3050C94E305C0
:100020000C94E3050C94E3050C94CA240C94392534
:100030000C94E3050C94E3050C94E3050C94E305A0
:100040000C94E3050C942D280C94E3050C94E30523
:100050000C94E3050C94E3050C94E3050C946B27D6
:100060000C94E3050C94E3050C94E3050C94E30570
:100070000C94E3050C94E3050C94E3050C94E30560
:100080000C94B5270C94E3050C94E3050C94E3055C
:100090000C94E3050C94E3050C94E3050C94E30540
:1000A0000C94E3050C94E3050C94E305084AD73B54
:1000B0003BCE016E84BCBFFDC12F3D6C74319ABD37
:1000C00056833DDA3D00C77F11BED9E4BB4C3E915B
:1000D0006BAAAABE000000803F0000000000007074
:1000E0000100C0000C00CAA77C0A42F55508534223
:1000F00048195EF551120030000000274500409479
:100100001C0014F3190504F111042004000004413B
:10011000100400040000104208015E14450F40F076
:1001200001005955551351555D0D8C927C0857555A
:10013000550D5E55550D51520C015E55550F5655D6
:10014000550F00A0000000A4000000C2280080A2FB
:1001500028008062080040500D005E7455079C9294
:10016000241F5F555D0D9C1445115F1425075F55D5
:1001700055115F5114015E54551D1F41101F40F46D
:100180004500100421071F41181D1F0441105EF097
:10019000041F9C10041F5E54450F5F9214035ED42D
:1001A000451F5F92341B5655550D41F005011F0444
:1001B00021071F4208011FE4410F1743181D07C103
:1001C000090151564D1100F0450000F0010040F4C6
:1001D000010080100C0010044110050115012501DB
:1001E000370149015D01720188019F01B801D20107
:1001F000EE010B022A024B026E029302BA02E402E3
:1002000010033E037003A403DC0316045404960495
:10021000DC0426057505C80520067D06E0064807AE
:10022000B7072D08A9082D09B9094D0AEA0A900B4C
:10023000400CFA0CC00D910E6F0F5A1053115A1248
:1002400072139A14D31520178018F519801B221DDC
:10025000DE1EB420A622B524E4263429A72B402E86
:100260000031080809090A0B0B0C0D0E0E0F1011B6
:100270001213141617181A1B1D1F20222427292BAE
:100280002E3134373A3D4145494E52575C62686ED3
:10029000747B838A939BA5AEB9C4CFDCE9F70001D8
:1002A00002030406080C00F4F8FAFCFDFEFF3E47CA
:1002B0006B6D6D413E3E41555551653E000306094B
:1002C0000C0F1215181C1F2225282B2E30333639FF
:1002D0003C3F414447494C4E515355585A5C5E602F
:1002E000626466686A6C6D6F707273757677787920
:1002F0007A7B7C7C7D7E7E7F7F7F7F7F80904800C5
:1003000064904A0064904C0064904D0064904F00EB
:10031000C880F0A2243B24ED23367F7755140808CB
:10032000082A6B7F3E2A081C3E36637F6341081C07
:10033000495D7F2A49143E7F6B632214775D551C0B
:100340003E3622000000C0F0F0F8F8F8F0F0C000EF
:1003500000000000000107070F0F0F070701000052
:100360000000E0F8FCFCFEFEFEFEFEFCFCF8E000F7
:1003700000030F1F1F3F3F3F3F3F1F1F0F0300E0C2
:10038000F8FCFEFEFF3F3F3FFFFEFEFCF8E0030FE0
:100390001F3F3F7F7E7E7E7F3F3F1F0F03E0F8FCC5
:1003A000FE3E1F0F0F0F1F3EFEFCF8E0030F1F3F26
:1003B0003E7C7878787C3E3F1F0F03E0F81C0E06E9
:1003C0000303030303060E1CF8E0030F1C38306020
:1003D0006060606030381C0F03E018040202010105
:1003E00001010102020418E0030C102020404040EB
:1003F00040402020100C035449544C4500524554B1
:10040000525900FCFEFE063E3E3C00E0F0F030F0AB
:10041000F0E000F0F0F020F0F0E020F0F0E000F08C
:10042000F0F020F0F0E000FEFEFE00E0F0F0B0F0B2
:10043000F0E000FCFCFC3000E0F0F0B0F0F0E00098
:10044000E0F0F020FEFEFE00FEFEFE1F3F3F303FCC
:100450001F0F001F3F3F303F3F1F003F3F3F003F08
:100460003F3F003F3F3F007F7F7F103F3F1F003FE8
:100470003F3F001F3F3F313D3D1D003F3F3F3000AC
:100480001F3F3F313D3D1D001F3F3F103F3F3F009D
:100490003B3B3BFEFEFEC6C600E0F0F030F0F0E075
:1004A00000F6F6F600FEFEFE00E0F0F0B0F0F0E040
:1004B00000E0F0F020FEFEFE000000000000000062
:1004C000003F3F3F0000001E3E3E133F3F3F003FC6
:1004D0003F3F003F3F3F001F3F3F313D3D1D001F5D
:1004E0003F3F103F3F3F003838003838003838FE73
:1004F000FEFEC6FEFE7C00E0F0F0B0F0F0E000E0B2
:10050000F0F030F0F0E000E0F0F020FEFEFE0070D1
:10051000F0F08000F0F07000DCDEDE86FEFCF83FDC
:100520003F3F003F3F3F001F3F3F313D3D1D001E0D
:100530003E3E133F3F3F001F3F3F103F3F3F000005
:10054000637F7F787F1F00003B3B3B0101010090F0
:1005500051002880002890560028800028905A00DA
:1005600028800028E3F0DE945000089447000894A7
:100570004C000894430008E480F04241434B20546F
:100580004F205449544C4500524554525900434F52
:100590004E54494E554500550E644F0F5DDD9C5D30
:1005A000000A9C51000AE380F0904C000A90490038
:1005B0000A80F043414E43454C004F4B005041549C
:1005C0005445524E3A004F424E2D59313320564534
:1005D0005220302E313100C0C6CFDFFFFB73037CC9
:1005E000FEFFC7E3FF7F3E00FFFFFF1B1B1B030057
:1005F0000303FFFFFF030300000000000000008072
:1006000080808000000000000000000000000080EA
:10061000E0F058AC56AB55AB5500FF0101010202AA
:10062000040810608000003FFFAA55AA55AA55AAE9
:1006300055A85FAC5CAC5CAC5CAC5C0CCF3C000027
:10064000000103060D1A152A252A252A252215122E
:1006500009040201000000FFFF57AB57AB57AB572F
:10066000AB03FF808080000000000000000000FF5E
:10067000FF55AA55AA55AA55AA00FF00000001017E
:1006800002040830C000001F7FD5AA55AA55AA55FC
:10069000AA54AF56AE56AE56AE562E86671E000012
:1006A00000000103060D0A151215121512110A0990
:1006B000040201000000000000000000008080C073
:1006C000C0C0C0808080000000000000000000C0AA
:1006D000F078AC56AB55AA55AA00FF000000010106
:1006E00002040830C00000FFFF55AA55AA55AA55BC
:1006F000AA00FFFEAE56AE56AE56AE5607FE001F1F
:10070000171512151215121512101F1712151215A2
:1007100012151215101F000000A040A00028104460
:1007200038827C007C8ED6DADA827C003838003859
:100730007CFE0000000000240027002A002D00306D
:100740000000000000250028002B002E00310004CE
:1007500008020110408040102040804080080204C0
:10076000018040201002011080102040402004042D
:10077000040404030405020202020403020202024A
:10078000060606060606040402020204040000D35C
:10079000104211790F0D100000881BE41AD117A91F
:1007A000144352454449540053455454494E475309
:1007B000004E455720424154544C45005245545236
:1007C0005900455849540044455445435420454434
:1007D0004745004C454420424C494E4B0050415443
:1007E0005445524E00444946464943554C545900DD
:1007F0000C0E06030303060E040C0E1E0F0F0F0E45
:100800000E040C0E1E1F1F1F0E0E0470FC0E06039E
:10081000030370FC7E3E0F0F0F70FC7E3E3F1F0FE8
:10082000000000000000000000807E1FBC78E0C0D7
:10083000C080808080404020B058AC5CB878F0E048
:10084000C000000000804020A0108847A050AA559A
:10085000AAF50BE7060C0A1C7AF5FAFD7E030101E6
:1008600002050B070E314994BA7DFEEDC607070954
:1008700012254A558A952B563050B87FFFFFFCE071
:100880000000000000000000000000010205070356
:1008900000000000000000000101020408152A55B4
:1008A0006FDFFF78000000004F4646004F4E2000EB
:1008B00052414E444F4D2000535045434946590044
:1008C000504C41592054494D4500504C415920430A
:1008D0004F554E5420005B53455454494E47535D89
:1008E000002D204152445542554C4C4554202D007A
:1008F00000004D4152434820323032300050524FB8
:100900004752454D4D4544204259204F424F4E4F8E
:100910000000544849532050524F4752414D2049FE
:10092000530052454C454153454420554E44455291
:1009300000544845204D4954204C4943454E5345A9
:100940002E001B00080C0E0E0C0801030707030104
:1009500043414E43454C2020205354415254000003
:1009600000F8FFFFFF0FFFFFFFF0000000FFFFFF99
:10097000FFFF0F0FFFFFFFFEFC00FFFFFFFFFF0F5A
:100980000FFFFFFEFEFC00FFFFFFFFFF0000FFFF69
:10099000FFFFFF00FFFFFFFFFF0F0FFFFFFEFEF84F
:1009A00000FFFFFFFFFF0000FFFFFFFFFF00FFFF53
:1009B000FFFFFF00000000FFFFFFFFFF000000003F
:1009C000FFFFFFFFFF0F0F0F000F0F0FFFFFFFFFD6
:1009D000FF0F0F0FE0F0F8F8F83838F8F0F0E0808B
:1009E000FEFFFFFFE3E0E3FFFFFFFC8000FFFFFFF0
:1009F000FFFF0F0FFFFFFFFBF100FFFFFFFFFF00F7
:100A000000FFFFFFFFFF00FFFFFFFFFF0000FFFFF2
:100A1000FFFFFF00FFFFFFFFFF0F0FFFFFFDFDF8D0
:100A200000FFFFFFFFFF0000FFFFFFFFFF00FFFFD2
:100A3000FFFFFF00000000FFFFFFFFFF00000000BE
:100A4000FFFFFFFFFF0F0F0F00000000FFFFFFFF82
:100A5000FF000000878F9F9F3F7EFCFDF9F1E11FA3
:100A60001F1F1F1F0101011F1F1F1F1F001F1F1F0F
:100A70001F1F00001F1F1F1F1F001F1F1F1F1F1EE4
:100A80001E1F1F1F0F070003070F1F1F1E1E1F1F04
:100A90000F0F03001F1F1F1F1F1E1E1F1F1F0F07EB
:100AA0000003070F1F1F1E1E1F1F0F0F03001F1F16
:100AB0001F1F1F1E1E1E001F1F1F1F1F1E1E1E008A
:100AC0001F1F1F1F1F1E1E1E1E0000001F1F1F1F97
:100AD0001F000000070F0F1F1C1C1F1F0F0F07D543
:100AE000F08D14A1C881CFD9F1AF2000B10AA80AB6
:100AF0002015241994187D0AC9187E11F81B080BBB
:100B000000020202000009040000010202000005C8
:100B10002400100105240101010424020605240615
:100B200000010705810310004009040100020A00CA
:100B30000000070502024000000705830240000094
:100B40000403090412010002EF0201404123368030
:100B500000010102030141726475696E6F204C4C03
:100B6000430041726475696E6F204C656F6E6172EF
:100B7000646F0000092911241FBECFEFDAE0DEBF49
:100B8000CDBF11E0A0E0B1E0E0EEFFE502C00590CE
:100B90000D92A034B107D9F727E0A0E4B1E001C07D
:100BA0001D92A33EB207E1F715E0CBEBD5E004C000
:100BB0002197FE010E94E82FCA3BD107C9F70E9486
:100BC00026290C94EE2F0C940000EDE8F3E080E071
:100BD000A0E0B8E000800EBC8111012C1197A0FDAF
:100BE000FDCF0192B9F70DB408952091E10730E0EF
:100BF000209530954091E20750E02423352390E082
:100C00002823392381E0232B09F480E00895CF9332
:100C1000DF93DC0177FF13C022273327261B370B16
:100C2000842F042E000C990B281739072CF4460F3B
:100C300070E060E0141644F0DF91CF91089514162F
:100C4000DCF760347105C4F7A038B105A8F7262F8A
:100C5000CB01840F911D47FD9A958134910514F0C5
:100C600040E4461B27709FEF022E01C0990F0A94A3
:100C7000EAF7420F621B710977FF02C0695F7F4F7D
:100C800083E0759567958A95E1F7FB01F695FE2F50
:100C9000EE27F795E795EA0FFB1FE357FC4F28E097
:100CA00030E06FEF70E014163CF6483064F4D90180
:100CB000A41BB10947FDB395EB0102C0D595C795BB
:100CC000AA95E2F79C238081982B90834850E058A6
:100CD000FF4F9FEFE8CFFC0180917003882311F153
:100CE0003FB7F89482E08093E9002091F200822FD0
:100CF00090E01816190614F481E090E0882339F08A
:100D0000289844E640936F034091F10040832223EA
:100D100039F02091F200211103C02BE62093E80066
:100D20003FBF08958FEF9FEF08952FB7F89483E0AA
:100D30008093E9009091E800892F807295FF04C0AC
:100D40009091F20080E4891B2FBF08958091670382
:100D500081110DC082E08093630384E0809364037B
:100D6000109266031092650381E08093670383E627
:100D700093E00895CF93DF931F92CDB7DEB76983D9
:100D8000DC01ED91FC910280F381E02D41E050E027
:100D9000BE016F5F7F4F09950F90DF91CF9108954E
:100DA00083E08093E9008091F200882319F08AE3C0
:100DB0008093E80008950E94950690E00895CF93EF
:100DC000DF931F92CDB7DEB7FC018485958597FD33
:100DD00008C02FEF3FEF358724870F90DF91CF9129
:100DE0000895CE0101960E946B06019719F489813E
:100DF00090E0F3CF8FEF9FEFF0CF0F931F93CF9340
:100E0000DF931F92CDB7DEB78C01FC0184859585F9
:100E100097FF0BC0CE0101960E946B06019771F4FB
:100E2000898190E0F80195878487F801848595850C
:100E30000F90DF91CF911F910F9108958FEF9FEF4A
:100E4000F1CFFC018485958597FD0BC09FB7F89481
:100E500082E08093E9008091F2009FBF90E00196CC
:100E600008959FB7F89482E08093E9008091F200A2
:100E70009FBF90E0089540915D0350915E032091E3
:100E80005B0330915C0342175307B4F49091E80080
:100E90009570E1F39091E80092FD19C08093F10004
:100EA00080915D0390915E0301968F739927892B42
:100EB00019F48EEF8093E80080915D0390915E03BA
:100EC000019690935E0380935D0381E0089580E036
:100ED0000895DF92EF92FF920F931F93CF93DF93CA
:100EE000D82E8A01EB017B01E40EF51ECE15DF053D
:100EF00059F0D7FE12C0FE0184910E943B07219653
:100F00008111F4CF0FEF1FEFC801DF91CF911F9137
:100F10000F91FF90EF90DF9008958881EECF0F93AF
:100F20001F93CF93DF931F92CDB7DEB782E0898303
:100F300042E450E06EEF7AE080E80E9469070E9488
:100F4000A606DC0112960D911C910115110589F080
:100F5000D801ED91FC910280F381E02DBE016F5F1D
:100F60007F4FC801099597FD04C0F80100851185E0
:100F7000ECCF89810F90DF91CF911F910F91089550
:100F8000615030F02091F100FC0120830196F8CFF0
:100F9000289884E680936F030895AF92BF92CF9212
:100FA000DF92EF92FF920F931F93CF93DF936C0129
:100FB0007B018B01040F151FEB015E01AE18BF080A
:100FC000C017D10759F06991D601ED91FC910190BC
:100FD000F081E02DC6010995892B79F7C501DF91D4
:100FE000CF911F910F91FF90EF90DF90CF90BF9026
:100FF000AF9008953FB7F89480914E0390914F03BE
:10100000A0915003B091510326B5A89B05C02F3F76
:1010100019F00196A11DB11D3FBFBA2FA92F982F1E
:101020008827BC01CD01620F711D811D911D42E019
:10103000660F771F881F991F4A95D1F708958F92E1
:101040009F92AF92BF92CF92DF92EF92FF926B018D
:101050007C010E94FA074B015C01C114D104E10438
:10106000F104B9F00E94FA07681979098A099B0905
:10107000683E73408105910580F321E0C21AD108D2
:10108000E108F10888EE880E83E0981EA11CB11CCF
:10109000E4CFFF90EF90DF90CF90BF90AF909F9004
:1010A0008F9008958F929F92AF92BF92CF92DF92CE
:1010B000EF92FF920F931F93CF93DF936C017B010D
:1010C0008A0180911201882309F45CC08091700329
:1010D000882309F457C08091620380FF05C0809186
:1010E000E00082608093E000E801B12C8AEFA82E36
:1010F00093E0892E2AE3922E209711F4BB20D9F198
:101100000E94950681110AC0AA94AA20D9F161E033
:1011100070E080E090E00E941F08EECF8C171D0663
:1011200011F00CF08C2F9FB7F8948092E900209179
:10113000E80025FD02C09FBFDFCF282F30E0C21B93
:10114000D30BF701815020F041914093F100FACF89
:10115000E20EF31EBB2021F09092E800B12CEBCF01
:101160008091E80085FDE7CF9092E800BB24B3941E
:10117000209709F3F3CF5D9884E6809361031016FE
:1011800011063CF081E090E0F6019383828310E049
:1011900000E0C801DF91CF911F910F91FF90EF9078
:1011A000DF90CF90BF90AF909F908F900895BC013B
:1011B00090E080E00C941F088FB18095807F669B43
:1011C00088601C9B8460089580914C030895109260
:1011D0004C033E983F9808953E9A3F9A81E0809351
:1011E0004C03089580E0EDE8F3E081118FEF0024D7
:1011F00081938193819381930394D1F71092720329
:1012000010927103109274031092730308953F9229
:101210004F925F926F927F928F929F92AF92BF9206
:10122000CF92DF92EF92FF920F931F93CF93DF93B2
:1012300030E0F901E80FF91F1E161F060CF0D7C0A9
:10124000803891050CF0D3C0FB01E00FF11D1E1694
:101250001F060CF0CCC0603471050CF0C8C0DB0177
:1012600077FF04C0AA27BB27A61BB70BA770BB2715
:10127000FB0177FD3796C3E0F595E795CA95E1F751
:1012800077FF07C0319768E070E0EB01CA1BDB0B0A
:10129000DE01402E469446944694512C077019F076
:1012A000DFEF4D1A5D0ABF01EF01D695DC2FCC2789
:1012B000D795C795C80FD91FC357DC4F8A01460E73
:1012C000571E48E050E04A018A1A9B0A64157505CA
:1012D00009F48DC06830710509F489C06F3FEFEFE4
:1012E0007E070CF44BC06C0150E040E03E01E0E8AA
:1012F0006E0E711CD7FC35C06F3F760709F473C0C2
:101300005E01A40EB51EF501F080FA01E00FF11F99
:1013100033243394E31039C0E4910A2E01C0EE0F58
:101320000A94EAF7FE2AF501F0821097D1F06730AF
:101330007105B9F05301A40EB51EF501F080FA0154
:10134000E00FF11F33243394E31035C0E491F0E053
:10135000082C02C0F595E7950A94E2F7FE2AF501FC
:10136000F0824F5F5F4FFFEFCF1ADF0A421753073C
:101370002CF4F0E8CF16D10409F0BCCF6F5F7F4F9B
:10138000C058DF4F020F131FA1CFE1100CC0E49132
:10139000F0E00A2E02C0EE0FFF1F0A94E2F7E0957C
:1013A000F095FE22C0CFE4910A2E01C0EE0F0A9400
:1013B000EAF7FE26B8CFE1100CC0E491F0E0082C6B
:1013C00002C0F595E7950A94E2F7E095F095FE22C4
:1013D000C6CFE491F0E0082C02C0F595E7950A9499
:1013E000E2F7FE26BCCF109709F0A4CFBACFDF9169
:1013F000CF911F910F91FF90EF90DF90CF90BF9012
:10140000AF909F908F907F906F905F904F903F90A4
:1014100008956F927F928F929F92AF92BF92CF92D8
:10142000DF92EF920F931F93CF93DF936C015B01D9
:101430004A01122FC1E0D0E083E0682E712CCE016A
:10144000B3010E94D42F6A0D7B1D615071098C0D70
:101450009D1DE12C00E1212FA40101970E940709A5
:101460002296C930D10559F7EE24E394212FA40127
:10147000B501C6010E940709DF91CF911F910F911D
:10148000EF90DF90CF90BF90AF909F908F907F9024
:101490006F90089580389105B8F460347105A0F418
:1014A00020E191E061FD94E060FD990F62FD92956D
:1014B000687F269FD0011124A80FA357BC4F8C91A1
:1014C00040FF03C0892B8C93089590958923FBCF0F
:1014D000EF920F93EE24E39405E120E84FE559E005
:1014E00068E070E090E080E00E9407090F91EF90C3
:1014F000089585E0809338030895CF93C091380311
:10150000C53089F080914B0381110E94F208EC2FC5
:10151000F0E0EE0FFF1FE956F84F85919491FC0122
:10152000099510924B03CF9108959C01909130033F
:1015300096306CF484E09802F0011124E55FFC4FD2
:1015400033832283718360839F5F90933003089578
:101550009091450391509093450381E0911180E073
:10156000089588E78093450308959091C3019034CE
:1015700019F1A0910201B0910301FD0130813F7189
:1015800041F03596A4ECB1E033E0E430F307B0F37A
:10159000F4CFF0930301E0930201828363834483D9
:1015A00012165CF420320CF02FE12F712F71208382
:1015B00011829F5F9093C301089521E0F7CF8F922E
:1015C0009F92AF92BF92CF92DF92EF920F931F93B1
:1015D000CF93DF936C015B01C42FD22F802E912C0F
:1015E000023070F09401215031094E2D4203C001A8
:1015F000439F900D112497FD019695958795C81BE3
:1016000010E000E00815190554F42D2F4C2FB501FA
:10161000C6010E94B50A0F5F1F4FCE0DF3CFDF91B9
:10162000CF911F910F91EF90DF90CF90BF90AF902F
:101630009F908F900895EEE4F1E0808187FD02C0D5
:101640008B5F8083329681E0E237F807B1F7089527
:101650009091E20796FB332730F995FB882780F9B4
:10166000381B94FB552750F9892F881F8827881F1E
:10167000581B80914B0142E0883031F0332319F040
:1016800043E0511101C044E020910603349F200D36
:101690001124243FD8F023EF209306033091050353
:1016A000549F300D1124343FA8F033EF30930503DD
:1016B00092FF45C090914A01911103C09CE0909324
:1016C0004A01883058F080914A010FC02C3020F731
:1016D0002CE0E2CF3C3050F73CE0E8CF8F5F8093C6
:1016E0004B0180914A018823A9F14FEF480F4093A5
:1016F0004A0163E00E94B42F91112CC08BEA489FED
:10170000412D1124469584E0841B269526952B5F58
:1017100036953695E0910001F09101012083932FD9
:10172000981B91832283380F3383349681E0E2370C
:10173000F80748F4F0930101E0930001089588232D
:1017400081F28150CCCF8EE491E09093010180939F
:10175000000108950895282F80913D0385FF1DC045
:10176000E22FF0E0E956FA4FE4918E2F69E10E94F2
:10177000B42F8093490135E08E2F632F0E94B42F40
:10178000492F0E94B42F909348014093470188E06D
:10179000253009F480E1809346010895E82F87FF02
:1017A00004C0719561957109EF77E1341CF080E810
:1017B0008E1BE82F0E2E000CFF0BE454FD4FE4911E
:1017C000E69FC001E79F900D1124880F892F881F85
:1017D000990B0895CF92DF92EF92FF920F931F9390
:1017E000CF93DF93EC018881282F229526952770CF
:1017F0009981892F880F880F880F822B9295969553
:1018000097706CE070E00E94D42F6B010B8110E0A8
:101810008C810E94CE0B080F191FEA80F12C8C815D
:10182000B601805C0E94CE0BA701480F591FC8016A
:10183000BA01DF91CF911F910F91FF90EF90DF9050
:10184000CF9008959F92AF92BF92CF92DF92EF9286
:10185000FF920F931F93CF93DF930091050306959B
:10186000069510E0780181E0E81AF108C0910603BE
:10187000C695C695D0E06E01E1E0CE1AD10884ECA1
:10188000A82E81E0B82E912C22960E5F1F4FF501F5
:101890003081232F2F7151F1329536953770418168
:1018A000542F550F550F550F852F832B942F92953D
:1018B00096959770820F911D382F3295330F307E99
:1018C000232B20839295990F907E869586958695F9
:1018D000892B8183C5010E94EA0B60387105D8F419
:1018E00080349105C0F46C157D05FCF4F5E0AF0E75
:1018F000B11C84E0A81683E0B80649F6892DDF9173
:10190000CF911F910F91FF90EF90DF90CF90BF90FC
:10191000AF909F900895F5018081807E80838091B3
:10192000C30181508093C301E1CF6C177D07F4F6AA
:101930008E159F05DCF280179107C4F699249394C5
:10194000D5CFCF92DF92EF92FF920F931F93CF9359
:10195000DF937C018B01DB011296EC91E40FF52FF4
:10196000F11DDC011296CC9012978C2D8F738E9FF7
:1019700090018F9F300D11246C91962F92959F703E
:1019800011964C91642F63706295607F692B70E0B3
:10199000C9010E94C02FD62E242F269526952F717F
:1019A000D801CC918C2F829586958695837011965F
:1019B000CC91CF70CC0FCC0FC82BD0E030E0C294CC
:1019C000C694C69483E0C822D70113969C919F7059
:1019D000990F990F9C299E9FB0019F9F700D112414
:1019E000CB01B9010E94C02F862F4078B901840F26
:1019F0000E94CE0BC80FD91FF80100810F7310E0B1
:101A0000005C1F4FD7016C91862F82958F701196C5
:101A10006C9163706295607F682B70E080E48D0D3F
:101A20000E94CE0BA801480F591FCE01BA01DF91C9
:101A3000CF911F910F91FF90EF90DF90CF9008957D
:101A4000EF920F9327E0429FA001112442555D4F72
:101A5000E090040107E027E00E9407090F91EF9052
:101A6000089510922F0310922E038091E207982F71
:101A7000907F41F1909144019F5F94310CF59093D8
:101A8000440190914401913011F09F30E9F485FFB9
:101A900003C09FEF90932E0386FF05C090912E0305
:101AA0009F5F90932E0387FF03C09FEF90932F03B8
:101AB00084FF0AC080912F038F5F80932F030895C6
:101AC0009FE0DDCF109244010895EAE3F3E0208126
:101AD000318145E0429FC001439F900D1124428116
:101AE000538167E0649F9001659F300D1124820F40
:101AF000931F875C93484481558169E0649F9001FE
:101B0000659F300D1124280F391F468157816BE0E6
:101B1000649FC001659F900D1124820F931F408523
:101B200051856DE0649F9001659F300D1124820FF7
:101B3000931F0895CF92DF92EF92FF920F931F931E
:101B4000CF93DF93082F142F469FE001479FD00DBE
:101B50001124F12CE12C60E074E284EF90E0A70105
:101B60009E010E94412C215031094109510991E007
:101B70002115310581E0480751056CF060E970EDF1
:101B800083E090E0A7019E010E94412C2150310981
:101B90004109510993E0013059F00330F9F0DF9128
:101BA000CF911F910F91FF90EF90DF90CF9008950C
:101BB0001093420180918100887F892B809381005E
:101BC0003093890020938800109285001092840041
:101BD00080916F00826080936F00E1CF109343018A
:101BE000D0934101C093400180919100887F892B5F
:101BF0008093910030939900209398001092950063
:101C00001092940080917100826080937100C7CF20
:101C1000811116C01092860380917C0381110AC045
:101C200080912603E0912703F0912803908180950D
:101C30008923808342E064EF71E083E00C949A0D85
:101C400080918103811110C080916F008D7F8093FE
:101C50006F0080912303E0912403F091250390818C
:101C600080958923808308950895FF920F931F9391
:101C7000CF93DF93EC0190918C03992309F464C016
:101C80008B01913071F480918B03882351F0809106
:101C90008A038F3F09F058C080E00E94080E10921E
:101CA0008B03E0918803F09189030995FF24F39455
:101CB0008F258093870330E020E0A9019801220F4F
:101CC000331F441F551FDE010E94602C6C507E4F55
:101CD0008F4F9F4F28EE33E040E050E00E94732C7E
:101CE00080918C038130A1F480938603209382033A
:101CF00030938303409384035093850383E042E051
:101D0000BE01DF91CF911F910F91FF900C949A0D1E
:101D1000F092810320937D0330937E0340937F03F1
:101D20005093800380918B03882351F081E0909140
:101D30008A039F3F09F080E080937C0381E0DFCF3E
:101D40008FEF80938A03FACFDF91CF911F910F918C
:101D5000FF90089564E170E08BE492E00C94350EFE
:101D60000E94AA0EEAE3F3E0209139032D5F81E09F
:101D700090E0A0E0B0E004C0880F991FAA1FBB1F2D
:101D80002A95D2F723818227838381E080934A03B7
:101D900008950E94AA0EEDE3F3E02081822F8F7058
:101DA00090E06AE070E00E94D42F8F5F8F70207FF8
:101DB000282B208381E080934A0308950E94AA0E75
:101DC00083E08093380381E080934B0308950E9461
:101DD000AA0E1092300369EC7EE085EE97E00E9437
:101DE000950A60EB7EE08DED97E00E94950A60EB2E
:101DF0007EE083ED97E00E94950A60EB7EE087EC41
:101E000097E00E94950A65E27FE082EC97E00E94ED
:101E1000950A1092390381E08093310392E0909308
:101E200037032CE0209336032CE7209335032EE173
:101E300020933403109233031092320390933803AB
:101E400080934B0380934A03089580913803823036
:101E500011F40E94AA0E10923003809142039091D7
:101E60004303892B61F069E77AE08CEB97E00E94ED
:101E7000950A70E060E090E080E00E94950A6FE0D3
:101E800078E181EB97E00E94950A67EE7EE088EAB0
:101E900097E00E94950A6EED7EE081EA97E00E944D
:101EA000950A809138038230E9F4809130038250A2
:101EB0008093390381E0809331039CE29093370350
:101EC00096E29093360394E5909335039AE19093CC
:101ED000340310923303809332038093380380934A
:101EE0004B03089580913D0387FB882780F9880F75
:101EF000DFCF8CE00E94F505882339F00E94AA0EFE
:101F000081E08093380380934B0308950E94AA0ECA
:101F10001092040381E080934B030895CF93DF93E5
:101F2000C091390386E0C802E0011124A6960E9400
:101F3000AA0E1092300363EE73E28AEB95E00E94E2
:101F4000950A66E87FE083EB95E00E94950A88E2B7
:101F500080933703C09336038FE2809335038BE081
:101F60008093340381E08093330380933203809322
:101F7000390380933103DF91CF910895CF930E946D
:101F8000AA0E10923003C0910903C230B8F162E288
:101F900079E188E895E00E94950A6EE87FE0C1301B
:101FA00011F063EE73E28AE795E00E94950A909142
:101FB0003003892F880F890F880F93E1909337039F
:101FC00096E3981B9093360399E5909335038150DF
:101FD0008093340391E09093330390933203809184
:101FE00045018927C23009F080E08093390381E000
:101FF0008093310380930403CF91089566E87FE0D6
:102000008EE895E00E94950ACC2359F2C0CF6AE091
:1020100070E088EB91E00C94350E8F929F92AF9216
:10202000BF92CF92DF92EF92FF92CF93DF9380E443
:102030000E94F505F82E80E20E94F505F81AC1F01D
:10204000809144032F2D0F2C000C330B820F932F04
:10205000911D8F3F980761F0059754F40E94071077
:1020600080914403F80EF092440381E080934A0388
:1020700080912F03882309F457C00E940710C09154
:102080004403D0E0F0E0E0E0C12CD12C7601C39411
:10209000EC17FD0754F43196ABE1B0E0A7019601CF
:1020A0000E94602C6B017C01F3CF809046039090DE
:1020B0004703A0904803B0904903C0912F03C50186
:1020C000B401A70196010E94412CCA01B9012BE17C
:1020D00030E040E050E00E94412C2C2F0C2E000CF0
:1020E000330BC901860F971F4B9740F0A6EEBFEF49
:1020F000A70196010E946E2C6B017C01AC2FCC0FC6
:10210000BB0BA70196010E946B2C860E971EA81E82
:10211000B91E8092460390924703A0924803B09262
:10212000490381E080934A0388E00E94F5058823F3
:1021300091F00E94AA0E81E08093380380934B03B4
:10214000DF91CF91FF90EF90DF90CF90BF90AF9055
:102150009F908F90089584E00E94F505882381F375
:1021600040914603509147036091480370914903A1
:1021700080913A0390913B03A0913C03B0E0841717
:102180009507A607B70729F080913D038F778093C5
:102190003D0340933A0350933B0360933C0385E037
:1021A00080933803CDCF80E80E94F5058823C1F0E5
:1021B000809139031816A4F48150982F815024E09F
:1021C0009202F0011124E55FFC4F20813181232B25
:1021D000A1F3909339030E94071081E080933103AB
:1021E00080E10E94F505882321F180913903482F71
:1021F000082E000C550B20913003022E000C330BDF
:102200002150310942175307A4F48F5F982F8F5F35
:1022100024E09202F0011124E55FFC4F208131811E
:10222000232BA1F3909339030E94071081E0809340
:10223000310380913203882381F088E00E94F50504
:10224000882359F080914C03811118C00E94EC083A
:102250000E94AA0E81E08093310384E00E94F5057C
:10226000882379F0E091390384E0E802F001112439
:10227000E55FFC4F0190F081E02D09940E94E70892
:10228000E7CF089580913903882379F087FD02C054
:10229000843064F10E94D31080E90E94F505882300
:1022A00019F081E080934A03089580912E038823DA
:1022B00089F30E94071020913D03822F8F70815077
:1022C000990B30912E03830F911D37FD9A950A9635
:1022D0006AE070E00E94D42F8F5F8F70207F282BE0
:1022E00020933D0381E080934A03D4CF80E60E948F
:1022F000F505882379F20E94B00ECCCF0E94310DF3
:1023000080910403882341F00E94D3108091090337
:102310008330D1F082E00895809145038F5F8093F0
:10232000450380914601882319F08150809346012E
:10233000E0910903F0E0EE0FFF1FED5EFC4F859189
:102340009491FC010995E2CF81E00895FF920F93EB
:102350001F93CF93DF9301E010E0FF24F394E0910B
:102360007803F0917903AF014F5F5F4F509379038A
:10237000409378032491822F807FC22FCF70D22F79
:10238000D370803821F48D2F0E94080EE8CF803959
:1023900009F03FC0E0918803F091890309958F25EA
:1023A00080938703E0917803F0917903CF01019640
:1023B0009093790380937803E491809177039091CF
:1023C0008C03D91760F6D13021F4909181039111DB
:1023D000C6CF8E0F87FDC3CFE82FF0E08C3390F48B
:1023E000EE59FD4FE4916E2F70E081E0D11103C0F2
:1023F000F092860383E04C2F469546954E5F0E94EF
:102400009A0DADCFEE0FFF1FEE59FE4F65917491FF
:10241000ECCF87FD3FC03296F0937903E0937803C9
:10242000FA014491A0914001B0914101322F242F33
:102430000E94952C6C507E4F8F4F9F4F28EE33E0BB
:1024400040E050E00E94732C20938203309383037A
:10245000409384035093850380918203909183037A
:10246000A0918403B0918503892B8A2B8B2B61F477
:1024700081E090E0A0E0B0E080938203909383033A
:10248000A0938403B0938503DF91CF911F910F91A7
:10249000FF900895803DA1F4F0937B03E0937A03CD
:1024A00080917503882309F45ACFEC2FF0E0E256AF
:1024B000FD4FE491C0917703EC0FE09377034FCF8A
:1024C000803E21F5C11109C080917A0390917B0370
:1024D000909379038093780342CF809175038F5F47
:1024E00080937503980102C0220F331FCA95E2F74B
:1024F000821713064CF350937B0340937A03809129
:102500007603809377031092750329CF803F09F0FB
:1025100026CF10928B03B8CF0F931F93CF93DF93E7
:102520008C01D62F80918B03882349F180918A03F7
:10253000861790F1C0E080918C03C81728F48C2F87
:102540000E94080ECF5FF7CF10928B03D0938A03BF
:1025500010937B0300937A0310937903009378031D
:1025600010927703109276031092750381E08093A6
:102570008B03DF91CF911F910F910C94A611809145
:102580008103882319F381E090918A03961708F05C
:1025900080E080937C03DACFDF91CF911F910F9180
:1025A0000895EF920F93CF93DF9377FF0CC08827A6
:1025B0009927861B970B2817190609F00CF47CC085
:1025C000260F70E060E057FF0FC0EE27FF27E41BE7
:1025D000F50B802F002E000C990BE817F9070CF073
:1025E0006BC0040F50E040E0222309F465C060385E
:1025F00071050CF061C010160CF05EC0403451053E
:102600000CF05AC0CB01820F911D8138910514F056
:1026100020E8261B942FFA01E00FF11D07FDFA9523
:10262000E134F10514F000E4041B97708FEF092EDC
:1026300001C0880F0A94EAF7090F491B510957FF97
:1026400002C0495F5F4F93E0559547959A95E1F732
:102650005695542F442757954795640F751F635718
:102660007C4F48E050E0AFEFB0E010162CF508309A
:1026700064F4FA01E01BF10907FDF395ED0102C0D6
:10268000D595C795EA95E2F78C23E1100DC08095AA
:10269000FB01922F3081382331939150D9F70850A4
:1026A00060587F4F8FEFE1CFFB01922F3081382BA5
:1026B00031939150D9F7F3CFDF91CF910F91EF90F4
:1026C00008952F923F924F925F926F927F928F92D6
:1026D0009F92AF92BF92CF92DF92EF92FF920F93B1
:1026E0001F93CF93DF93CDB7DEB728970FB6F8943B
:1026F000DEBF0FBECDBF6A3071F52091050180911C
:1027000071039091720336E0239F800D911D112477
:102710009093720380937103109274031092730369
:1027200081E090E028960FB6F894DEBF0FBECDBFD3
:10273000DF91CF911F910F91FF90EF90DF90CF909D
:10274000BF90AF909F908F907F906F905F904F90D1
:102750003F902F90089520EE260F203408F7109117
:102760000501209173033091740338872F8346E06D
:10277000149F900111243C832B832F8138852038AE
:1027800031050CF043C0809071039090720330E4E7
:10279000831691040CF03AC02F81388545E0149FD0
:1027A000200D311D112437FD31C02B813C81280DB6
:1027B000391D37FD2BC09E838D83F090040184E08A
:1027C000689FF0011124E65AFF4F4590559065909F
:1027D0007490113071F5AF80B88416E0D12CC12C03
:1027E00040FC1FC040E0F1101DC0769467945794E0
:1027F00047949FEFC91AD90A26E0C216D10481F77F
:1028000011503FEFA31AB30A1111E8CF8F819885B9
:102810002B813C81820F931F9093740380937303E9
:102820007FCF4F2DB4016C0D7D1DC5010E944A0A5A
:10283000DCCF812F90E09A838983CF80D88426E0F3
:10284000322E540196E0292E40FC14C0E12CF110E8
:1028500012C076946794579447942A9429813A81B8
:10286000A20EB31E2110F0CF3A94C20ED31E311027
:10287000E8CFCCCFEF2C012F212FA501B6018D8100
:102880009E810E94D112E5CF0C9461138F929F928A
:10289000AF92BF92CF92DF92EF92FF92CF93DF93EE
:1028A00069017A01909374038093730370937203A8
:1028B00060937103C5E0D0E08BE1882E912CA12CB0
:1028C000B12CC701B601A50194010E94732C6A3195
:1028D0007105D1F06F5B8DED97E00E944414C70144
:1028E000B601A50194010E94732C69017A01219718
:1028F00041F7DF91CF91FF90EF90DF90CF90BF90A5
:10290000AF909F908F9008956EE2E5CF0F931F9345
:10291000CF93DF938A019093740380937303709332
:10292000720360937103D0E0C0E0F801EC0FFD1F6B
:102930006491662341F08DED97E00E946113892B2D
:1029400011F02196F2CFCE01DF91CF911F910F911F
:102950000895CF92DF92EF920F93CF9380914B0324
:102960008823C1F00E94680A40E559E069E370E0FD
:102970008CE190E00E94861440E068E370E080E122
:1029800090E00E94200D41E068E370E086E490E072
:102990000E94200D80914A03882319F180914B03F6
:1029A00081110BC0E12C02E126E341E250E065E237
:1029B00070E08DED97E00E94D11282E080930501D6
:1029C00020914603309147034091480350914903B9
:1029D00065E270E083E290E00E94461481E080931B
:1029E0000501C091450380914A03811103C08C2FDA
:1029F0008370F1F4C2FBCC27C0F9C09044038CE093
:102A0000C89E6001112485E2C80ED11CEC2E03E0A3
:102A100026E044E459E060E270E0C6010E94070944
:102A200026E04AE459E060E370E0C6010E9407092D
:102A300010924A03CF910F91EF90DF90CF900895BD
:102A40006F927F928F929F92AF92BF92CF92DF92BE
:102A5000EF920F93CF93DF93809145038F50990BA3
:102A600063E070E00E94D42F8AE39AEAA3EEBEEE00
:102A700004C0B695A795979587956A95D2F7C82F04
:102A8000C1708FE7C89F802D112493E894BD9FEFFC
:102A900097BD91EF909380008093880010928A00F8
:102AA0000E94F2082091450388E790E0821B91097B
:102AB0006CE270E00E94D42F3B0187EFA82E85E0E6
:102AC000B82E9CE1892E912CD12CC12CD0E081E034
:102AD00090E06C147D0411F090E080E08C9FB001D8
:102AE0008D9F700D9C9F700D1124645F7F4FEE24AD
:102AF000E39400E228E1A501C4010E9407098FEFD9
:102B0000C81AD80A88E1880E911C80E6A80EB11C6C
:102B100083E0C816D104D9F608E020E247ED55E07D
:102B20006CE270E084E490E00E94070946EC55E016
:102B30006AE370E080E190E0DF91CF910F91EF9038
:102B4000DF90CF90BF90AF909F908F907F906F90CD
:102B50000C948614089590E080E0089597FF0DC0CE
:102B600022273327281B390B4217130629F024F09C
:102B7000480F90E080E031F408954423E9F3803871
:102B80009105D4F760347105B8F79C01240F311D0D
:102B90002138310514F040E8481B362F377021E00A
:102BA00001C0220F3A95EAF7FB0133E0F595E7956E
:102BB0003A95E1F7F695FE2FEE27F795E795E80FA2
:102BC000F91FE357FC4F8081822B81934150D9F745
:102BD000D3CFBF92CF92DF92EF92FF920F931F93CA
:102BE000CF93DF93C0904503CC2DC37087E4C89F7B
:102BF000D02C112483E0C89F8001112407511A4E64
:102C0000B0900903E0900703F0900803B11004C0EE
:102C1000EC2DE857FF0B7F01D0E0CC0FDD1FF80152
:102C20008491835ED80E3196E4918D2D90E0EF7003
:102C3000F0E03896EE9D9001EF9D300DFE9D300D39
:102C4000112446E0359527954A95E1F7821B930BB1
:102C500041E0BE018F7799270E944A0A2896045FB7
:102C60001F4FC034D105DCF280913D0386FF31C097
:102C7000F1E0FB1570F1C0FC2CC0C0910603C695B5
:102C8000C695CB50DD0B10910503169516951C16B5
:102C90001D064CF047E1812F8B50990BBC0190E051
:102CA00080E00E94070647E170E060E01C3028F0F9
:102CB000143378F047E16FE370E0CE01DF91CF91FC
:102CC0001F910F91FF90EF90DF90CF90BF900C94E9
:102CD000AE15DF91CF911F910F91FF90EF90DF9094
:102CE000CF90BF9008958F929F92AF92BF92EF9234
:102CF000FF920F931F93CF93DF93CDB7DEB7A197CA
:102D00000FB6F894DEBF0FBECDBF7C01FA01CB0138
:102D100019A2223008F42AE08E010F5D1F4F822E87
:102D2000912CB12CA12CBF01A50194010E94732C00
:102D3000F901CA016A304CF5605DD8016E938D01CE
:102D4000232B242B252B79F790E080E0109761F05E
:102D5000FD0101900020E9F73197AF014A1B5B0BA1
:102D6000BD01C7010E94CD07A1960FB6F894DEBF42
:102D70000FBECDBFDF91CF911F910F91FF90EF90CC
:102D8000BF90AF909F908F900895695CD6CFEF92DF
:102D90000F93CF93DF9381E090910A039A3008F468
:102DA00080E0C82FD0E09E01220F331F220F331F77
:102DB000C21BD30B282F220F280F220F255ABE012A
:102DC0006E5E7F4FE12C07E040E150E08DED97E033
:102DD0000E94D1124DEB55E061E170E0CE014396C7
:102DE0000E94861420913A0330913B0340913C03AA
:102DF00050E061E170E0CE018D5B9F4F0E94461470
:102E00006DE28DED97E00E94441440910A0350E07A
:102E100070E060E02AE08DED97E0DF91CF910F91B7
:102E2000EF900C9473162F923F924F925F926F9295
:102E30007F928F929F92AF92BF92CF92DF92EF924A
:102E4000FF920F931F93CF93DF939093740380931C
:102E50007303709372036093710369017A01CA016D
:102E6000B90120EC3BE443E050E00E94732C2901BF
:102E70003A01C701B60120E13EE040E050E00E9487
:102E8000732C8CE3882E912CA12CB12CCA01B90192
:102E9000A50194010E94732CD62F272E382E092FBE
:102EA000C701B601A50194010E94732CCA01B901A2
:102EB000A50194010E94732CC62F972E5C018C2EC5
:102EC0004114510409F03FC0D11150C06A3028F4B8
:102ED00060E38DED97E00E9444142AE04C2F592DB9
:102EE000B5018DED97E00E9473166EE28DED97E0CF
:102EF0000E944414C701B60126E030E040E050E0F3
:102F00000E94732CCA01B9012AE030E040E050E091
:102F10000E94732CAB01BC012AE08DED97E0DF919C
:102F2000CF911F910F91FF90EF90DF90CF90BF90C6
:102F3000AF909F908F907F906F905F904F903F9059
:102F40002F900C9473162AE0B301A2018DED97E047
:102F50000E9473166AE38DED97E00E944414DA3004
:102F600028F460E38DED97E00E9444142AE04D2F91
:102F7000522D632D702F8DED97E00E9473166AE33A
:102F80008DED97E00E94441429E0281528F060E3B5
:102F90008DED97E00E9444142AE04C2F592DB50185
:102FA000BCCFCF92DF92EF92FF920F931F93CF93FC
:102FB000DF9380914B03882349F10BE010E0C1EED1
:102FC000D8E0FE0184918B3109F165E170E0CE011A
:102FD0000E94ED2B7C016C01DD24282F3DEF320394
:102FE000C0011124AE01B801805C9F4F0E9486147D
:102FF0008FEFC81AD80ACC0DDD1D86E090E0E110F5
:1030000002C082E090E0080F191FDBCFDF91CF9163
:103010001F910F91FF90EF90DF90CF9008958F92C6
:103020009F92AF92BF92CF92DF92EF92FF92CF9397
:10303000DF9380913D0384FF4CC00E94AA0E109242
:10304000440380913A0390913B03A0913C03B0E08C
:103050008B3622EF92072AEDA20701F5C5E0D0E0FA
:1030600020E030E0A9019AE1C92ED12CE12CF12C0D
:10307000ABE1B0E00E94602C4B015C010E948C2B04
:10308000A70196010E94412C9B01AC01280D391D1E
:103090004A1D5B1D219761F7DA01C9018093460340
:1030A00090934703A0934803B093490384E080932F
:1030B000380381E080934B0380934A03DF91CF91E3
:1030C000FF90EF90DF90CF90BF90AF909F908F9048
:1030D00008958F7780933D03C5E0D0E020E030E095
:1030E000A9018AE1C82ED12CE12CF12CABE1B0E092
:1030F0000E94602C4B015C010E948C2BA701960161
:103100000E94412C9B01AC01280D391D4A1D5B1DFD
:10311000219761F720933A0330933B0340933C039C
:1031200085E080933803CACFCF92DF92EF92FF926F
:103130000E94310D809145038F5F80934503E0919C
:103140003803F0E0EE0FFF1FE357F84F859194919D
:10315000FC0109950E94302B6C01990FEE08FF08C5
:103160000E94FA07C616D706E806F90631F06C2564
:103170007D258E259F250E94DB2B8091380385308D
:1031800031F081E0FF90EF90DF90CF90089582E0E2
:10319000F9CF60E08DEF92E00E948C1280913D03A8
:1031A0008F7080930A03109208031092070380E443
:1031B0008093060380E88093050310924A011092E1
:1031C0004B0110924501EEE4F1E08083329691E0EC
:1031D000E237F907D1F7E4ECF1E08081807E80836B
:1031E000359683E0E430F807C1F71092C301E2E7B7
:1031F000F1E081818F708183349691E0EE3AF90796
:10320000C1F780914D018F71806C80934D01809149
:103210003A0390913B03A0913C03B0E0BC01CD0187
:103220006F5F7F4F8F4F9F4F0E94DB2B10924503A4
:1032300010924601109204031092090381E08093DA
:103240004B0308950C94C9180F931F93CF93DF93EA
:10325000809138038111B4C084EE98E09093890383
:103260008093880380918C038823B1F190E023E060
:1032700080918C03981750F5911116C080917100C0
:103280008D7F8093710080912603E0912703F09158
:103290002803308180958323808380916500886036
:1032A000809365009F5FE4CF80916F008D7F809356
:1032B0006F0080912303E0912403F0912503308176
:1032C00080958323808320938100ECCF10927C0330
:1032D0001092810310928B0381E080938C03E3E7CB
:1032E000F7E08491E4E5F7E0249190E0880F991FDE
:1032F000FC01EF5BF84F45915491FC01ED5CF84FF8
:10330000A591B4918C91822B8C9380916500877FDD
:10331000809365001092900089E080939100509313
:103320002803409327032093260380E00E94080E81
:1033300080EF93E090932D0380932C03F999FECFB7
:1033400080EF93E00E94102C24EF33E030932D03A4
:1033500020932C036F3472448E449341B9F5F9994C
:10336000FECF4AE050E064EF73E08AE393E00E940E
:10337000F82BC0912C03D0912D032A96D0932D03C6
:10338000C0932C03F999FECFCE010E94162C8C011C
:103390002296D0932D03C0932C030E94650D8017B5
:1033A0009107A1F482E090E090932B0380932A038D
:1033B0001092290380914C03882341F10E94EC086C
:1033C000DF91CF911F910F910C94250FECE3F3E067
:1033D00088E0DF011D928A95E9F780913D03807FA7
:1033E0002BE632EF4AED20933A0330933B034093B0
:1033F0003C038360806280933D0381E090E0909382
:103400002B0380932A0380932903D4CF0E94E708DB
:10341000D7CF6F927F929F92AF92BF92CF92DF925F
:10342000EF92FF920F931F93CF93DF93909131030D
:10343000911103C0882309F4B9C0A090340322E09D
:10344000922E9A0C10913503F09036036F2C0F2CAE
:10345000000C7708630181E0C81AD108C0913703D6
:103460000C2E000CDD0B22E0210FBE016150710912
:10347000E12C092DA6018DED97E00E94D1128091DB
:103480003303882331F194E0B92EB10EE2E06E1AD5
:10349000710822974B2DB301CE010E94AE1584E036
:1034A0008A0DB301680F711D87FD7A95615071090E
:1034B0004B2DCE010E94AE15492DB601CE010E94C2
:1034C0000706CE018B0D911D492DB60101970E9473
:1034D0000706D0E0C0E08BE0C82E83E0D82E8091B4
:1034E0003003082E000C990BC817D9070CF042C006
:1034F000F6014281538141155105C9F1AF2C0F2CC2
:10350000000CBB0880913703082E000C990B0C9619
:1035100020913903022E000C330BC217D30721F57B
:1035200024E030E0B501821B930B0E948614809149
:103530003903082E000C990BC817D90771F4609154
:103540003703062E000C770BEE24E39405E025E00C
:10355000A5018DED97E00E94D112F6E0FF0E2196B5
:1035600084E0C80ED11CBBCF30E020E0DBCFF39469
:10357000F394F5CF809132038823B1F040E150E01D
:1035800063E277E087E797E00E94E42B60914C03C9
:10359000E6E06E9FB0011124695E784F46E050E08E
:1035A00087E897E00E94E42B10923103DF91CF91DE
:1035B0001F910F91FF90EF90DF90CF90BF90AF9051
:1035C0009F907F906F9008950F931F93CF93DF93F9
:1035D00080914B038823C1F146ED58E064E070E030
:1035E00082E290E00E94861440E86CE270E090E095
:1035F00080E00E94AE154AEC58E060E370E08AE09B
:1036000090E00E948614409142035091430370E081
:1036100060E02AE08DED97E00E94731640EC58E0E0
:1036200066E370E08AE090E00E94861420913E03F9
:1036300030913F03409140035091410366E370E0B5
:103640008CE490E00E94131780914B030E94091AAA
:1036500080914A03882309F442C00CE010E0D0E0D6
:10366000C0E080913903082E000C990B8C179D0740
:10367000D9F186E590E020913D0330E0AE014D5F49
:103680005F4F02C0359527954A95E2F721703327A1
:10369000C130D10561F11CF0C430D10594F14091E5
:1036A0003D034F7050E070E060E0909374038093AE
:1036B000730310937203009371032AE08DED97E07A
:1036C0000E94731660E28DED97E00E9444142196EB
:1036D0000A5F1F4FC430D10521F610924A03DF91D3
:1036E000CF911F910F91089582E590E0C4CF40EBF8
:1036F00058E0232B11F048EB58E0B8010E948614E3
:10370000E6CF48EA58E0232BC1F34CEA58E0F5CF66
:10371000EF92FF920F931F93CF93DF93F0904B03A1
:10372000FF2071F00E94680AEE24E39400E222E296
:1037300040E258E060E270E086E090E00E94070915
:10374000809145038370C82FD0E011E0209709F0E5
:1037500010E02197811102C0C2E0D0E087E08C9F89
:10376000A0018D9F500D1124455F574FE12E08E0B9
:1037700027E067E270E088E090E00E94070989E0B6
:103780008C9FA0018D9F500D11244051584F05E092
:1037900029E062E270E085E190E00E9407098F2D48
:1037A0000E94091A8091420390914303892BC9F02A
:1037B00080913903811115C08091450381708093F8
:1037C000040120913A0330913B0340913C0350E0C7
:1037D00066E270E088E590E00E94461481E0809304
:1037E0000401DF91CF911F910F91FF90EF90089509
:1037F0002F923F924F925F926F927F928F929F9201
:10380000AF92BF92CF92DF92EF92FF920F931F93EE
:10381000CF93DF9300D01F92CDB7DEB7109109038D
:103820001330B1F510924601809146012091470175
:10383000829F202D112490914801899F902D112461
:1038400030914901839F802D112433E834BD909538
:1038500097BD91EF909380002093880080938A0019
:1038600010924B030F900F900F90DF91CF911F910B
:103870000F91FF90EF90DF90CF90BF90AF909F900F
:103880008F907F906F905F904F903F902F90089512
:1038900080914B0390910403992319F00E94091A17
:1038A000C1CF882309F20E94F208E0910603E69551
:1038B000E695F0E0209105032695269530E080916D
:1038C00045018983882309F432C140914503469517
:1038D0004695463088F49EE1499FA00111244D5B36
:1038E0005C4FB90167507109EE24E3940FE02FE0BB
:1038F000CF0107970E940709EEE4F1E0FB83EA831A
:10390000EA81FB81808187FD07C0618170E045E02D
:103910008450990B0E94AE152A813B812E5F3F4F48
:103920003B832A832257314059F7E4ECF1E0FB83D3
:10393000EA83EA81FB8180818F7149F0CF010E9487
:10394000EA0BDC01CB0142E0BD010E94AE152A81E9
:103950003B812B5F3F4F3B832A832450334049F701
:1039600052E7A52E51E0B52EE7EAF1E0FB83EA83AA
:10397000D12CC12C67EB262E6DE6362E7CE2472E2D
:1039800055245394E4E86E2EE3E07E2EC60165E0F4
:1039900070E00E94D42F892B09F0FCC02A813B8162
:1039A000295F3F4F3B832A832E5A3140229DC0011D
:1039B000239D900D329D900D1124849D9001859D35
:1039C000300D949D300D11248091070390910803D0
:1039D000821B930BB3010E94C02F4C01F501818122
:1039E000807F69F17401F8E6EF1AF1E0FF0AF7FE53
:1039F00003C0F194E194F10822E6E21A21E0F20A10
:103A0000A401B5018A819B810E94A10C1E141F0490
:103A10000CF4CFC0EA81FB8140814F70F7E04F9FEB
:103A2000A0011124405E5C4FDC011397CB0103978A
:103A3000EE24E39407E027E0BD010E9407098FEF21
:103A4000C81AD80A94E0A90EB11CEFE0CE16D10432
:103A500009F09CCF60914D01462F429546954770E5
:103A60004630D0F4FEE14F9FA00111244D5B5C4F26
:103A700080914C01282F221F2227221F6F71660F71
:103A8000622B6750770B8F77EE24E3940FE02FE0E3
:103A90008750990B0E9407090E94E915113009F41B
:103AA000BDC008F4ABC0123009F0BECE3091450362
:103AB0003A838981882309F4CAC0832F3F3108F0F3
:103AC0008EE12EE130E0281B3109229FC001239FA7
:103AD000900D900D11246AE070E00E94D42FCB016C
:103AE0002EE243E954E068E170E089960E94090AF9
:103AF0009A819C3308F498CEE12C07E02BE240E356
:103B000050E06AE270E08DED97E00E94D1124DEF37
:103B100053E061E370E087E390E00E94861441E0A7
:103B200060E370E08BE290E00E94200D74C0111100
:103B30001AC0409145034C3350F48CE390E0841B51
:103B400091096DEF7FEF0E94D42FE60FF71FB901A7
:103B500063507109EE24E39407E027E049E153E064
:103B6000CF010397C7CE123091F7409145034051E2
:103B7000550B449FC001459F900D900D112497FD5A
:103B80004F96A5E095958795AA95E1F70897E80FD8
:103B9000F91FDDCFEA81FB8185818295869587704B
:103BA00090E00196880F991F880F991F881A990A2B
:103BB00015CF27E0E216F1040CF041CFF70134E015
:103BC000E316F10414F0E3E0F0E00E2D000F000F17
:103BD000095F2E2F220F37E0321B232FEE0CFF1C24
:103BE000AC014E195F09635071096E0F7F1FEE24FF
:103BF000E3948DED97E00E94D11221CF809145038F
:103C000083FF09C020E34FEE54E068E170E088E2F2
:103C100090E00E94090A0E94C71606CE8091070311
:103C20009091080380312EE0920768F42FE03EE087
:103C3000281B390B50E040E070E060E088E690E03F
:103C40000E941317F1CD20E030E0A901F5CF6A8181
:103C5000693208F068E26051770B28E443E054E0F1
:103C60008CE190E00E94090AEA81EC3308F4DCCD93
:103C7000E12C07E02BE240E350E06AE270E08DEDDA
:103C800097E00E94D11247EF53E043CF2F923F922B
:103C90004F925F926F927F928F929F92AF92BF925C
:103CA000CF92DF92EF92FF920F931F93CF93DF9308
:103CB000CDB7DEB760970FB6F894DEBF0FBECDBFAD
:103CC000809107039091080380312EE0920708F05D
:103CD000AFC26CE271E00E94C02F892B09F0A8C22C
:103CE000862F63E00E94B42F092FE92EF12C87E084
:103CF000989FA001112442555E4F588B4F870E9418
:103D00008C2B21E230E040E050E00E94412C6C5FBF
:103D10007F4F8F4F9F4F362F3295307FAF85B889B9
:103D20002C912F70232B2C9354E0969587957795A3
:103D300067955A95D1F7637011968C9111978C7F86
:103D4000682B11966C930E948C2B29E130E040E0A7
:103D500050E00E94412C6D5F7F4F8F4F9F4F6F71DE
:103D6000660F660FEF85F88981818378682B618300
:103D70000E948C2B22E030E040E050E00E94412C79
:103D8000AF85B88911968C91119760FB87F91196D0
:103D90008C930E948C2BECE38E2E912CA12CB12CB9
:103DA000A50194010E94412C6C5F7F4F8F4F9F4F64
:103DB0006F73EF85F8898281807C682B62830E9413
:103DC0008C2BA50194010E94412C6C5F7F4F8F4F7B
:103DD0009F4F362F3295330F330F307CAF85B88924
:103DE00012962C9112972F73232B12962C931297C5
:103DF000F2E09695879577956795FA95D1F76F706C
:103E000013968C911397807F682B13966C930E9466
:103E10008C2BA8E08A2E912CA12CB12CA501940109
:103E20000E94412C862F8295880F807EEF85F8892D
:103E300065816F71682B65830E948C2B25E030E0D3
:103E400040E050E00E94412C862F8F70AF85B889EA
:103E50006C91607F682B6C930E948C2B29E730E07B
:103E600040E050E00E94412C645C7F4F8F4F9F4F99
:103E7000EF85F88966830E948C2BA50194010E942E
:103E8000412C862F8770AF85B88915966C91159750
:103E9000687F682B15966C930E948C2B24E030E091
:103EA00040E050E00E94412C6370862F880F880FFD
:103EB000880FEF85F8896581677E682B658380911F
:103EC0000A039681899FC001112468E770E00E946F
:103ED000D42F162F611101C011E00E948C2B24E019
:103EE00030E040E050E00E94412C31E0672B682B2D
:103EF000692B61F5612F70E090E080E00E942B2E2D
:103F00000E945B2F20E030E040E85FE30E94A52C98
:103F10000E94F52D4B015C0181E090E0A0E0B0E053
:103F2000F2E08F169104A104B1047CF00E948C2B66
:103F3000A501940121503109410951090E94412CE8
:103F4000DC01CB010196A11DB11D382F812F632FFC
:103F50000E94B42F182F8F706F7097E09E9DF00114
:103F60009F9DF00D1124E255FE4F90819F7092307D
:103F700008F0F2C18295807F682B648387E08E9D74
:103F800090018F9D300D1124F901E255FE4F86817D
:103F900090E0D901AE54BE4F6C916F7070E00E94FA
:103FA000D42F635071092D543E4FD9018C918770E5
:103FB0008617170631F028F067708581887F682B97
:103FC000658387E08E9DF0018F9DF00D1124E255F1
:103FD000FE4F80818F70813019F0843009F0C1C1AB
:103FE000123008F4BEC10E948C2B20E230E040E089
:103FF00050E00E94412C605E7F4F8F4F9F4FE12F1A
:10400000E150FF0B9F01032E000C440B550B0E9447
:10401000412C283008F4A3C1283108F027E12850AA
:104020002F7087E08E9DF0018F9DF00D1124E255D9
:10403000FE4F2295207F83818F70282B2383B5E04C
:104040000B9F80011124000F111F000F111F0E582C
:104050001E4F90910603969596958091050386953F
:1040600086952801E4E14E0E511C47E04E9D9001DB
:104070004F9D300D1124A90142555E4F5A8349834B
:104080004DE3242E312CD901A155BE4FBC83AB8307
:10409000E92FF0E0FE83ED83282F30E038872F836F
:1040A000A981BA81CC908C2D82958F701196CC907D
:1040B000BC2DB370CB2EC29490EFC922C82AD12C4C
:1040C00041018C189D08092C000CAA08BB08D59446
:1040D000C7940D2C000CEE08FF08C814D904EA049C
:1040E000FB048CF48C189D08AE08BF0841F00E94B8
:1040F0008C2BA50194010E94412C4B015C01C80C42
:10410000D91CEA1CFB1C8C2D8F73F801C080FC2D80
:10411000F07CCF2EC82AD801CC92EB81FC81808123
:10412000869586958F71C82ED12C41018C189D08DB
:10413000092C000CAA08BB08F3E0CF0ED11C0D2CF3
:10414000000CEE08FF08C814D904EA04FB048CF440
:104150008C189D08AE08BF0841F00E948C2BA50169
:1041600094010E94412C4B015C01C80CD91CEA1C33
:10417000FB1C9C2D9295990F990F907CD8018C91E6
:104180008F73892B8C9382E0F694E794D794C7942D
:104190008A95D1F7BC2DB06FF801B1830E948C2BAA
:1041A00020E031E040E050E00E94412CD80112961E
:1041B0006C9350E040E0B8018F8598890E94A10C73
:1041C0006B017C016D817E816C197D09072E000CCD
:1041D000880B990B0E942D2E4B015C016F81788515
:1041E0006E197F09072E000C880B990B0E942D2E4B
:1041F000A50194010E94242D20E030E040E053E42A
:104200000E94E82E2BED3FE049E450E40E94832D0C
:1042100020E030E040E05FE30E94A52C0E94F52DF5
:10422000F80163830C5F1F4F0415150509F038CFA3
:104230001A8219821A861B82B2E72B2EB1E03B2E1E
:1042400017EA412E11E0512E89819A8165E070E0D4
:104250000E94D42F892B09F0A5C0F7E04F0E511C06
:1042600092012E5A314047EB5DE6249FC001259F05
:10427000900D349F900D1124ACE2B1E08A9F900123
:104280008B9F300D9A9F300D1124809107039091E0
:104290000803821B930B64E873E00E94C02F3C016B
:1042A000D10111968C91982F907FD1F0B1ED6B16C2
:1042B000B2E07B061CF08F70F101818380910903CD
:1042C000813071F4C3010697853C924008F478C0B0
:1042D0006114710429F463E089EA95E00E948C126C
:1042E000E981FA813196FA83E983F4E02F0E311CDB
:1042F00029813A812F30310509F0A6CF3A85332341
:1043000031F06AE070E088EC90E00E94350E4B815D
:10431000411108C081E0209107033091080320314A
:104320003E4008F480E060960FB6F894DEBF0FBE02
:10433000CDBFDF91CF911F910F91FF90EF90DF9054
:10434000CF90BF90AF909F908F907F906F905F9035
:104350004F903F902F9008956295607F0DCE20E0A2
:1043600060CE0E948C2B47E04E9D90014F9D300DFA
:104370001124A90142555E4F6A0124E030E040E07B
:1043800050E00E94412C6F5F7F4F8F4F9F4F62958F
:10439000607FD60113968C9113978F70682B1396BC
:1043A0006C934DCEF201858182958695877090E061
:1043B0000196880F991F880F991F681A790A70CF84
:1043C000A301B101C2010E94A10C4B015C017887DD
:1043D0006F839E838D838C01035011099B012350B1
:1043E0003109EEE4F1E0AB014C5F5F4FBC016C5F63
:1043F0007F4FD1011196FC908F2D807F09F4B6C0BC
:10440000B1E0E237FB0709F4C7C0808187FD1EC019
:10441000B18190E082179307CCF084179507B4F42C
:104420008B2F90E0801791078CF08617970774F414
:1044300080E880838F2D807F80519F2D9F70F92E83
:10444000F82AD1011196FC92B1E0BA873296D1CF09
:10445000433009F478C0443009F042CFF201F481CE
:10446000F295FF70F987D10113961C91F12CE12C84
:10447000EF2FF0E0F88BEF872F853889E216F306EF
:104480000CF06CC000320CF069C0101644F4202F00
:10449000412F6D817E818F8198850E94B50A3FEF03
:1044A000E31AF30A0F5FE8CFD20114960C9102953C
:1044B0000F7010E0FE85E3E0FE02F0011124F88B9E
:1044C000EF87F7FF03C03196F88BEF872F85388988
:1044D00035952795388B2F87C80195958795281B8B
:1044E0002987D12CC12CC016D1060CF0F9CE398504
:1044F00030320CF0F5CE131644F4232F4F2D6D817E
:104500007E818F8198850E94B50A4FEFC41AD40A24
:1045100059855F5F5987E7CFEE85F3E0EF029001A1
:10452000112437FF02C02F5F3F4F35952795D201E9
:1045300014960C9102950F70F1014381B501C401ED
:104540000E94DF0ACDCED20114960C9102950F7015
:104550002F85220FBE85B01B2B0FCBC0D101139628
:10456000EC901397DE0C1396DC92BACE62E08DE9E4
:1045700095E00E948C12D2018C918F700E94AB0B3F
:10458000882DA0FA87F980934C01C50196958795EF
:104590008F7180934D01A4CEBB81BF5FBB83F201BD
:1045A000F581F9872F2F2770D10112968C91860DF6
:1045B000972D911DF201668170E00E94D42F2D5F2E
:1045C000622F70E00E94C02F6F87892B09F088CE80
:1045D000EF85EB87D20114961C911F70E11708F04C
:1045E0007FCE80910A038C5FB985B695B695B69556
:1045F000B370B80FBE870B2F609106036695669562
:1046000070E068197909072E000C880B990B0E943D
:104610002D2E6B017C01609105036695669570E017
:104620006A197B09072E000C880B990B0E942D2E0E
:10463000A70196010E94242D20E030E040E053E4E1
:104640000E94E82E2BED3FE049E450E40E94832DC8
:1046500020E030E040E05FE30E94A52C0E94F52DB1
:10466000F62EF201E380E294EFE0EE22F985F1709C
:10467000FC871D868C859D85880F991F019798E082
:104680009E0D989FD02C1124D2014C91BB85B11165
:104690001AC0F101F382842F8F708430A1F412309C
:1046A00090F0812F8150990B9C015D2D5203C00128
:1046B000539F900D112497FD019695958795AF2DE9
:1046C000A81BF101A3834F70423009F425CF08F0F5
:1046D000BFCE442309F4E8CE413009F001CED20127
:1046E00014960C9102950F70BF85B1700B1BED2CC9
:1046F0002E854F2D23CFCF93DF93809129038823DD
:1047000009F45BC080912A0390912B03019709F073
:1047100057C080EF93E090932D0380932C03F99979
:10472000FECF4FE452E46EE473E180EF93E00E9429
:10473000342C80912C0390912D03049690932D039B
:1047400080932C03F999FECF60912C0370912D0377
:104750004AE050E08AE393E00E941C2CC0912C03B5
:10476000D0912D032A96D0932D03C0932C030E9441
:10477000650DF999FECFBC01CE010E943C2C8091C1
:104780002C0390912D03029690932D0380932C037C
:10479000C0914C0382E090E00E94082CC81729F0D9
:1047A0006C2F82E090E00E94262C82E090E09093B3
:1047B0002B0380932A0310922903DF91CF91089550
:1047C00084EF93E0BBCF0E94AA0E0E947B2310923D
:1047D000040383E0809309030895809145018823B1
:1047E00021F0809145038C33B8F10E941B0B80911E
:1047F0004D01982F929596959770963040F49F5F53
:104800009295990F907E8F71892B80934D010E9414
:10481000220C0E94461E8091070390910803803E5F
:1048200020E1920728F401969093080380930703F0
:10483000809145038C3380F087FF03C088508093BC
:10484000450384E00E94F505882369F080914501C5
:10485000882331F00E94C91881E080934B030895AA
:104860000E94E323F9CF88E00E94F5058823A1F395
:104870000E94BE0FF1CF0E941B0B0E94280B80915B
:104880004D01982F929596959770963040F49F5FC2
:104890009295990F907E8F71892B80934D010E9484
:1048A000220C809345010E94461E209107033091FF
:1048B00008032F5F3F4F3093080320930703409175
:1048C0003E0350913F0360914003709141034F5F5D
:1048D0005F4F6F4F7F4F40933E0350933F03609372
:1048E00040037093410391E0909329039091450117
:1048F00091110AC081111BC088E00E94F505882330
:1049000091F00E94BE0F0FC061E086E695E00E9424
:104910008C1285E00E94AB0B0E947B231092450312
:1049200082E08093090381E080934B03089561E066
:104930008FE495E00E948C1280913D038068809303
:104940003D03EACFCF93C0914503CC33D8F00E940A
:104950001B0B0E94280BC837A9F480914203909149
:10496000430301969093430380934203C1E0C093B5
:1049700029030E947B23C093090381E080934B03AA
:10498000CF91089588E00E94F5058823B1F30E9435
:10499000BE0FF3CF1F920F920FB60F9211248F9379
:1049A0009F938091E1009091E100937F9093E100CB
:1049B00083FF0FC01092E90091E09093EB001092FA
:1049C000EC0092E39093ED001092700398E09093C6
:1049D000F00082FF22C093E09093E9009091F200F2
:1049E000992319F09AE39093E80090916103992339
:1049F00041F090916103915090936103911101C036
:104A00005D9A90916F03992341F090916F039150BB
:104A100090936F03911101C0289A84FF18C0809170
:104A2000E2008E7E81608093E2008091E1008F7EC3
:104A30008093E100809162038E7E806180936203A7
:104A40009F918F910F900FBE0F901F90189580FF30
:104A5000F7CF8091E2008E7E80618093E2008091AA
:104A6000E1008E7E8093E100809162038E7E816002
:104A7000E5CF1F920F920FB60F921124CF92DF92C3
:104A8000EF92FF920F931F932F933F934F935F9358
:104A90006F937F938F939F93AF93BF93EF93FF9306
:104AA000CF93DF93CDB7DEB76C97DEBFCDBF10924B
:104AB000E9008091E80083FF25C068E0CE014596BB
:104AC0000E94C00782EF8093E8008D8987FF39C07C
:104AD0009091E80090FFFCCF982F907609F034C1B8
:104AE0009E894F89588D2F89F88C911131C080385B
:104AF00061F5809160038093F1001092F1008EEFD8
:104B00008093E8006C960FB6F894DEBF0FBECDBF61
:104B1000DF91CF91FF91EF91BF91AF919F918F91D5
:104B20007F916F915F914F913F912F911F910F91C5
:104B3000FF90EF90DF90CF900F900FBE0F901F90DF
:104B400018959EEF9093E800C7CF1092F100D5CF53
:104B5000913059F48111D3CF4130510581F68091C4
:104B600060038D7F80936003CACF933049F4811135
:104B7000C6CF4130510519F6809160038260F2CFB3
:104B8000953041F48091E80080FFFCCF20682093AD
:104B9000E300B5CF963009F0A9C00B8D1C8D22E043
:104BA0001092E90010925E0310925D03F2122EC083
:104BB00010925C0310925B030E948F071F8299E0A2
:104BC0009983FA8291E09E8390EA98879AEF998779
:104BD00020915D0330915E03275F3F4F3C832B8321
:104BE0008D831092E90010925E0310925D03109382
:104BF0005C0300935B0349E050E0BE016F5F7F4FB1
:104C000080E00E9469070E948F0779CF10935C03B0
:104C100000935B030E94A606DC0112960D911C9185
:104C20000115110509F451C1D801ED91FC910480E1
:104C3000F581E02DBE016B5E7F4FC801099500979D
:104C400009F03EC1F80100851185EACFF3E0FF12BB
:104C50000EC08F89882309F440C0823061F440E897
:104C600060E182E69BE00E94D628811148CF81E274
:104C70008093EB0047CF813029F440E86BE086E574
:104C80009BE0F1CF833099F70E94A606DC011296D3
:104C9000ED90FC908E010F5F1F4F6801E114F1044D
:104CA00079F0D701ED91FC910680F781E02DB801F4
:104CB000C7010995080F111DF701E084F184EECFBB
:104CC000D8011C92F60101900020E9F73197BF014D
:104CD0006C197D0940E0C601C6CF60E47BE0FB01B2
:104CE000449150E080E80E94690709CF973009F4A9
:104CF000BECF983021F481E08093F10000CF99304D
:104D000009F0FDCE837009F0B2CFECE1F1E081E073
:104D100031E096E32191222371F08093E9003093F2
:104D2000EB00DF0111972C912093EC009093ED00A4
:104D30008F5F873079F78EE78093EA001092EA0060
:104D40008F8980937003DBCE8B8D9C8D1092E90050
:104D500010925E0310925D0390935C0380935B035B
:104D6000898D811192C08E899D89913A49F4813251
:104D700009F07DCF47E050E06BE071E080E0B3CF19
:104D8000913209F074CF833269F48F89988DB0E045
:104D9000A0E08093070190930801A0930901B093CC
:104DA0000A01ADCE803269F48091E80082FFFCCF29
:104DB00067E08BE091E00E94C0078BEF8093E800F2
:104DC0009ECE823209F09BCE8F8980931201EEEF46
:104DD000FFE7859194918B3F9C4D51F1E0E0F8E025
:104DE00080910B0190910C01A0910D01B0910E01E9
:104DF000803B9440A105B105F1F48091120180FD42
:104E00001AC0EE3F8AE0F80789F587E797E79183B4
:104E100080838091600080935F0388E19BE00FB600
:104E2000F894A895809360000FBE9093600067CEC1
:104E3000EEEFFAE0D5CF808191818737974709F06F
:104E40005ECEA8958091600088618093600080911B
:104E50005F0380936000EE3F2AE0F20789F08091C3
:104E6000FE0A9091FF0A9183808349CE80819181CF
:104E70008737980751F29093FF0A8093FE0AC5CFB7
:104E80001092FF0A1092FE0A3ACE0E94A606DC019A
:104E900012960D911C910115110509F4E8CED80167
:104EA000ED91FC910190F081E02DBE016B5E7F4F92
:104EB000C8010995811123CEF80100851185EBCF3A
:104EC000181619060CF41BCED2CEF1E0FF12BECE9E
:104ED00064E47BE004CF1F920F920FB60F9211246F
:104EE0002F933F938F939F93AF93BF9380915203E0
:104EF00090915303A0915403B091550330914D0309
:104F000023E0230F2D3758F50196A11DB11D2093E5
:104F10004D038093520390935303A0935403B09393
:104F2000550380914E0390914F03A0915003B0918F
:104F300051030196A11DB11D80934E0390934F0321
:104F4000A0935003B0935103BF91AF919F918F9164
:104F50003F912F910F900FBE0F901F90189526E84C
:104F6000230F0296A11DB11DD2CF1F920F920FB633
:104F70000F9211242F933F934F935F936F937F93DF
:104F80008F939F93AF93BF93EF93FF93809186038B
:104F9000882329F180917C03811121C080918703AE
:104FA00081111DC0609182037091830380918403FD
:104FB000909185032091430130E050E040E00E9451
:104FC000732C623071058105910548F49091260398
:104FD000E0912703F09128038081892780838091C5
:104FE000820390918303A0918403B0918503892B60
:104FF0008A2B8B2BE9F08091820390918303A091FF
:105000008403B09185030197A109B10980938203BC
:1050100090938303A0938403B0938503892B8A2BF9
:105020008B2B31F480918B03882399F00E94A61179
:10503000FF91EF91BF91AF919F918F917F916F9170
:105040005F914F913F912F910F900FBE0F901F9046
:10505000189580E00E94080EEBCF1F920F920FB6BA
:105060000F9211242F933F934F935F936F937F93EE
:105070008F939F93AF93BF93EF93FF93809181039F
:10508000882309F472C080917D0390917E03A091E2
:105090007F03B0918003892B8A2B8B2B09F451C09D
:1050A0008091870381111DC060917D0370917E0303
:1050B00080917F03909180032091420130E050E085
:1050C00040E00E94732C623071058105910548F41F
:1050D00090912303E0912403F09125038081892797
:1050E000808380917D0390917E03A0917F03B09196
:1050F0008003892B8A2B8B2B99F080917D039091D3
:105100007E03A0917F03B09180030197A109B109AB
:1051100080937D0390937E03A0937F03B0938003DD
:10512000FF91EF91BF91AF919F918F917F916F917F
:105130005F914F913F912F910F900FBE0F901F9055
:10514000189510927C031092810380916F008D7FDF
:1051500080936F0080912303E0912403F091250355
:105160009081809589238083DBCF80918703811193
:10517000D7CF60917D0370917E0380917F039091E2
:1051800080032091420130E050E040E00E94732C07
:10519000623071058105910518F690912303E09125
:1051A0002403F091250380818927DDCFEF92FF92C0
:1051B0000F931F93CF93DF93F82E192FE62E042F12
:1051C00081E0860F880F0E943B0783E00E943B0727
:1051D000CF2DD12FEC0EFD2EF11CCE15DF05B9F031
:1051E00007FF13C0FE0184910E943B07182F80E047
:1051F0000E943B07812321968111EFCFDF91CF9150
:105200001F910F91FF90EF9008958881EDCF81E07D
:10521000F5CFEDE8F7E01382128288EE93E0A0E08C
:10522000B0E084839583A683B78386E291E091837F
:1052300080838FEF9FEF95878487EDEDF7E01382F2
:10524000128288E391E0918380830895789484B5F5
:10525000826084BD84B5816084BD85B5826085BD72
:1052600085B5816085BD80916E00816080936E0000
:1052700010928100809181008260809381008091F2
:1052800081008160809381008091800081608093A3
:1052900080008091910082608093910080919100C4
:1052A0008160809391008091900081608093900054
:1052B0008091C10084608093C1008091C1008260B0
:1052C0008093C1008091C10081608093C100809172
:1052D000C30081608093C3008091C000826080938E
:1052E000C0008091C20081608093C20080917A00EA
:1052F000846080937A0080917A00826080937A0043
:1053000080917A00816080937A0080917A00806831
:1053100080937A00109270031092600310926203DF
:105320008091D70081608093D70080EA8093D80075
:1053300089B5806189BD89B5826089BD09B400FEE7
:10534000FDCF61E070E080E090E00E941F08809156
:10535000D8008F7C80618093D8008091E000807FAE
:105360008093E0008091E1008E7E8093E1008DE0EB
:105370008093E200559A209A81EC80937C0085B15D
:10538000806F85B984B1877E84B984B1876E84B912
:105390005E9A5F988AB1806D8AB9769A6E9881B369
:1053A000806F81BB899880B38D7080BB80E58CBD98
:1053B00081E08DBD85E090E00E94D7085F9A85E08E
:1053C00090E00E94D7085E985C98EFEDFAE0849137
:1053D0008EBD00000DB407FEFDCF31968AE0EC3E95
:1053E000F807A9F75C9A81E88093640080916500D2
:1053F0008160809365000E94E5050E94DC0887FFBC
:1054000015C05C9885EA8EBD00000DB407FEFDCF87
:105410005C9A2E982F982D988091640080628093DA
:10542000640081E083BF889513BEFCCF0E94DC0836
:1054300082FF46C02D980E94DC0884788438D9F415
:105440002D9A88EC90E00E94D7082F9882E090E097
:105450000E94082C8F3F29F06FEF82E090E00E94BD
:10546000262C84EF91E00E94D7082F9A0E94DC0836
:1054700084788438D9F30E94DC0884718431D9F4AB
:105480002D9A88EC90E00E94D7082E9882E090E058
:105490000E94082C882329F060E082E090E00E94BE
:1054A000262C84EF91E00E94D7082E9A0E94DC08F7
:1054B00084718431D9F388EC90E00E94D708B6CF8C
:1054C0002D9A82E090E00E94082C882359F10E94D6
:1054D000EC0880E18093060110925A03ECEEFAE0AA
:1054E00085919491FC010995FF24F394D6E000E0A6
:1054F00010E0EE24E3948FB7F8944091520350915A
:10550000530360915403709155038FBF80915803EA
:10551000882359F0109258030115110561F30E9478
:105520000000E9CF0E94E708D4CF80915903F42FFF
:10553000F81B8F2F90910601F91738F48F5F8917A8
:1055400058F7F3BE889513BEE7CFE0925803409317
:1055500059038091560390915703019690935703F6
:10556000809356038091E2078093E1070E94DC0854
:105570008093E207E0915A03DE9FF0011124E2518B
:10558000F54F85919491FC010995C82FE0915A033C
:10559000DE9FF0011124E051F54F85919491FC01BB
:1055A00009950E94E50580915A03C81709F4B4CF04
:1055B000C0935A03DC9FF0011124E451F54F85910B
:1055C0009491FC010995A8CF8F929F92AF92BF92C0
:1055D000CF92DF92EF92FF92CF93DF93EC0168813D
:1055E00079818A819B81611571058105910521F47D
:1055F00064E279ED8BE597E02DE133EF41E050E097
:105600000E94412C49015A019B01AC01A7EAB1E477
:105610000E94602C6B017C01ACEEB4EFA5019401FB
:105620000E946E2CDC01CB018C0D9D1DAE1DBF1D9B
:10563000B7FF03C00197A109B04888839983AA8363
:10564000BB839F77DF91CF91FF90EF90DF90CF905A
:10565000BF90AF909F908F9008950E94E42A089584
:1056600083E191E00E94E42A0895B0E0A0E08093F5
:10567000130190931401A0931501B093160108959E
:105680008F929F92AF92BF92CF92DF92EF92FF9252
:10569000CF93DF93EC01688179818A819B816115C9
:1056A00071058105910521F464E279ED8BE597E0C0
:1056B0002DE133EF41E050E00E94412C49015A01B5
:1056C0009B01AC01A7EAB1E40E94602C6B017C0154
:1056D000ACEEB4EFA50194010E946E2CC60ED71E4D
:1056E000E81EF91EF7FE06C081E0C81AD108E108DD
:1056F00080E8F80AC882D982EA82FB82C701B60133
:105700009F77DF91CF91FF90EF90DF90CF90BF9088
:10571000AF909F908F9008958F929F92AF92BF927B
:10572000CF92DF92EF92FF92609117017091180172
:105730008091190190911A016115710581059105FA
:1057400021F464E279ED8BE597E02DE133EF41E060
:1057500050E00E94412C49015A019B01AC01A7EA8B
:10576000B1E40E94602C6B017C01ACEEB4EFA501AA
:1057700094010E946E2CC60ED71EE81EF91EF7FE7D
:1057800006C081E0C81AD108E10880E8F80AC09292
:105790001701D0921801E0921901F0921A01C70185
:1057A000B6019F77FF90EF90DF90CF90BF90AF90C2
:1057B0009F908F90089560931701709318018093C4
:1057C000190190931A010895FB01DC0102C00590B4
:1057D0000D9241505040D8F70895FC01059061505A
:1057E00070400110D8F7809590958E0F9F1F0895F7
:1057F000DC01CB01FC01F999FECF06C0F2BDE1BD91
:10580000F89A319600B40D9241505040B8F708957F
:10581000F999FECF92BD81BDF89A992780B5089578
:10582000A6E1B0E044E050E00C94FA2BA8E1B0E02F
:1058300042E050E00C94FA2BDC01CB0103C02D9127
:105840000E94272C41505040D0F70895262FF999F7
:10585000FECF1FBA92BD81BD20BD0FB6F894FA9A53
:10586000F99A0FBE01960895242F0E94272C252F08
:105870000E94272C0C943C2C0E94262C272F0C9441
:10588000272C052E97FB1EF400940E94582C57FDE0
:1058900007D00E94732C07FC03D04EF40C94582CB4
:1058A00050954095309521953F4F4F4F5F4F08954C
:1058B00090958095709561957F4F8F4F9F4F08957C
:1058C0000E94952CA59F900DB49F900DA49F800DD4
:1058D000911D11240895B7FF0C94602C0E94602C38
:1058E000821B930B0895A1E21A2EAA1BBB1BFD017C
:1058F0000DC0AA1FBB1FEE1FFF1FA217B307E407AF
:10590000F50720F0A21BB30BE40BF50B661F771F06
:10591000881F991F1A9469F76095709580959095E6
:105920009B01AC01BD01CF010895A29FB001B39FBF
:10593000C001A39F700D811D1124911DB29F700D98
:10594000811D1124911D08955058BB27AA270E943C
:10595000BC2C0C94A62E0E94982E38F00E949F2EEC
:1059600020F039F49F3F19F426F40C946E2E0EF4B7
:10597000E095E7FB0C94682EE92F0E94B72E58F3B0
:10598000BA17620773078407950720F079F4A6F524
:105990000C94D92E0EF4E0950B2EBA2FA02D0B01EE
:1059A000B90190010C01CA01A0011124FF27591B64
:1059B00099F0593F50F4503E68F11A16F040A22F6A
:1059C000232F342F4427585FF3CF469537952795DB
:1059D000A795F0405395C9F77EF41F16BA0B620BDA
:1059E000730B840BBAF09150A1F0FF0FBB1F661F21
:1059F000771F881FC2F70EC0BA0F621F731F841F64
:105A000048F4879577956795B795F7959E3F08F089
:105A1000B0CF9395880F08F09927EE0F979587954B
:105A200008950E94982E60F080E891E009F49EEFBE
:105A30000E949F2E28F040E851E071F45EEF0CC008
:105A40000C946E2E0C94D92EE92FE0780E94B72E7C
:105A500040F3092E052AB1F32617370748075907DF
:105A600038F00E2E07F8E02569F0E025E0640AC062
:105A7000EF6307F8009407FADB01B9019D01DC012F
:105A8000CA01AD01EF930E949A2D0E94A62E0E949A
:105A9000542D5F91552339F02BED3FE049E450FD43
:105AA00049EC0C94A52C0895DF93DD27B92FBF771F
:105AB00040E85FE31616170648075B0718F4D92F6E
:105AC0000E94E02E9F938F937F936F930E949B2F52
:105AD000ECEAF0E00E94712E0E94A62E2F913F91D9
